:10000000B80904000000000000000000000000002B
:1000100000000000000000000000000000000000E0
:1000200000000000000000000000000000000000D0
:1000300000000000000000000000000000000000C0
:1000400000000000000000000000000000000000B0
:10137000CF942000F07F220020A0B7001020200092
:1013800032A0B700400020004420B7007200FA00ED
:1013900052140200000000005C1402000000000073
:1013A0008A1F78008B1F78008C1F78008D1F7800B3
:1013B000E60047000014280035000900B018780046
:1013C000F0FD2F00C8A2B700F0FF2F00D0A2B70099
:1013D000408F2F00D8A2B700F0F12F00E0A2B70095
:1013E000F0FF2B00E8A2B700F0F32F00F0A2B70047
:1013F000E824EF00E224EF00E624EF00E622EF000D
:10140000EDC2A9000A5822000B002000FDFE0700D3
:1014100058002000B71A21000E20ED00FEFF3A0010
:101420001020ED00FCFF3A00A6FF0700CCC1B3007E
:101430001BC0B300CAC1B3009BFF07003CC0B30090
:101440001620EF002AC1B30097FF07007CC0B3004D
:101450001620EF006AC1B30093FF07008CC0B300F1
:101460001620EF008AC1B3008FFF07001CC1B30034
:101470001BC0B3007AC1B3008BFF0700E0FB07007D
:101480003D0020001820EF000B4020000A02200041
:101490000020EF00801F780000042000801F7800EB
:1014A0000020EF00801F78000020EF00801F7800F0
:1014B0008DFF07008F00B10058002000B71A2100EF
:1014C0000E20ED00FEFF3A001020ED00FCFF3A0078
:1014D000EDC2A800DD42A800DD22A800DC02A800C1
:1014E000DD02A8009DFF07006100E10002003A0054
:1014F00094FF0700004798000E4090006104E1004F
:1015000008003A00CA902000A9FE07000020EF0062
:1015100000479800DD42A9000A002400B5FE07003C
:10152000DD42A8000E4090006204E1000B003A008A
:101530000A9120009EFE07000020EF00004798005F
:10154000DD42A900419C2400760047001080400045
:1015500000057800A7FE0700DD42A8000E409000BD
:101560006304E1000B003A000A90200090FE07009F
:101570000020EF0000479800DD42A90091C8240038
:1015800078004700108040000005780099FE0700B1
:10159000DD42A8000E4090006404E10008003A001B
:1015A0008A90200082FE07000020EF00004798008C
:1015B000DD42A9000A0025008EFE0700DD42A800DA
:1015C0000E4090006504E1000B003A000A8F2000F5
:1015D00077FE07000020EF0000479800DD42A900D9
:1015E000419C25007C0047001080400000057800E9
:1015F00080FE0700DD42A8000E4090006604E10076
:101600000B003A008A8F200069FE07000020EF00DF
:1016100000479800DD42A90091C825007E004700E0
:10162000108040000005780072FE0700DD42A8002F
:101630000E4090006704E10008003A004A91200043
:101640005BFE07000020EF0000479800DD42A90084
:101650000A00260067FE0700DD42A8000E40900049
:101660006804E1000C003A00CA8F200050FE070019
:101670000020EF0000479800DD42A900419C2600B1
:101680002002200000004700108040000005780084
:1016900058FE0700DD42A8000E4090006904E100FA
:1016A0000C003A00CA8E200041FE07000020EF0027
:1016B00000479800DD42A90091C8260040022000A2
:1016C00000004700108040000005780049FE070038
:1016D000DD42A8000E4090006A04E10008003A00D4
:1016E0004A8F200032FE07000020EF0000479800DC
:1016F000DD42A9000A0027003EFE0700DD42A800E7
:101700000E4090006B04E1000C003A008A8B200030
:1017100027FE07000020EF0000479800DD42A900E7
:10172000419C2700800220000000470010804000FC
:10173000000578002FFE0700DD42A8000E40900053
:101740006C04E1000C003A00CA89200018FE070072
:101750000020EF0000479800DD42A90091C8270053
:10176000A002200000004700108040000005780023
:1017700020FE0700DD42A8000E4090006E04E1004C
:101780000C003A00CA8B200009FE07000020EF0081
:1017900000479800DD42A900419C2300E0022000A0
:1017A00000004700108040000005780011FE07008F
:1017B000DD42A8000E4090006F04E1000C003A00EA
:1017C000CA8A2000FAFD07000020EF0000479800B9
:1017D000DD42A90091C8230000032000000047005B
:1017E000108040000005780002FE0700DD42A800DE
:1017F0000E4090007004E10008003A004A8B20007F
:10180000EBFD07000020EF0000479800DD42A90033
:101810000A002200F7FD0700DD42A8000E409000FC
:101820007104E1000C003A008A892000E0FD070005
:101830000020EF0000479800DD42A900419C2200F3
:1018400040032000000047001080400000057800A1
:10185000E8FD0700DD42A8000E4090007204E100A0
:101860000C003A000A8C2000D1FD07000020EF0098
:1018700000479800DD42A90091C8220060032000C3
:10188000000047001080400000057800D9FD0700E7
:10189000DD42A8000E4090007304E10008003A0009
:1018A000CA8D2000C2FD07000020EF00004798000D
:1018B000DD42A9000A002100CEFD0700DD42A8009C
:1018C0000E4090007404E1000C003A004A8A2000A7
:1018D000B7FD07000020EF0000479800DD42A90097
:1018E000419C2100A0032000000047001080400020
:1018F00000057800BFFD0700DD42A8000E40900003
:101900007504E1000C003A000A8A2000A8FD0700D7
:101910000020EF0000479800DD42A90091C8210097
:10192000C003200000004700108040000005780040
:10193000B0FD0700DD42A8000E4090007604E100F3
:1019400008003A008A8A200099FD07000020EF0075
:1019500000479800DD42A9001420EF00A5FD070014
:10196000DD42A8000E4090007704E1000C003A0030
:10197000CA9320008EFD07000020EF00004798006A
:10198000DD42A900419C2000E00320000000470048
:10199000108040000005780096FD0700DD42A80099
:1019A0000E4090007804E1000C003A008A93200079
:1019B0007FFD07000020EF0000479800DD42A900EE
:1019C00091C8200000042000000047001080400063
:1019D0000005780087FD0700DD42A8000E4090005A
:1019E0007904E10008003A004A93200070FD0700E6
:1019F0000020EF0000479800DD22A9000A00240023
:101A00007CFD0700DD22A8000E4090007A04E10072
:101A10000C003A000A93200065FD07000020EF004B
:101A200000479800DD22A900419C240040042000CA
:101A30000000470010804000000578006DFD0700A1
:101A4000DD22A8000E4090007B04E1000C003A006B
:101A5000CA92200056FD07000020EF0000479800C2
:101A6000DD22A90091C82400600420000000470086
:101A700010804000000578005EFD0700DD22A80010
:101A80000E4090007C04E10008003A00CA9120005A
:101A900047FD07000020EF0000479800DD22A90065
:101AA0000A00250053FD0700DD22A8000E4090002B
:101AB0007D04E1000C003A004A9220003CFD070042
:101AC0000020EF0000479800DD22A900419C25007E
:101AD000A0042000000047001080400000057800AE
:101AE00044FD0700DD22A8000E4090007E04E100C6
:101AF0000C003A000A8B20002DFD07000020EF00AB
:101B000000479800DD22A90091C82500C0042000EC
:101B100000004700108040000005780035FD0700F8
:101B2000DD22A8000E4090007F04E10008003A008A
:101B30008A9220001EFD07000020EF000047980059
:101B4000DD22A9000A0026002AFD0700DD22A800E8
:101B50008E40900000C2B300000CE1000C003A007F
:101B60008A91200012FD07000020EF000047980036
:101B7000DD22A900419C260000052000000047004E
:101B800010804000000578001AFD0700DD22A80043
:101B90008E40900010C2B300000CE1000C003A002F
:101BA0000A92200002FD07000020EF000047980085
:101BB000DD22A90091C82600200520000000470072
:101BC00010804000000578000AFD0700DD22A80013
:101BD0008E40900020C2B300000CE10008003A00E3
:101BE0004A902000F2FC07000020EF000047980018
:101BF000DD22A9000A002700FEFC0700DD22A80064
:101C00008E40900030C2B300000CE1000C003A009E
:101C10004A892000E6FC07000020EF0000479800FA
:101C2000DD22A900419C270060052000000047003C
:101C30001080400000057800EEFC0700DD22A800BF
:101C40008E40900040C2B300000CE1000C003A004E
:101C50000A892000D6FC07000020EF00004798000A
:101C6000DD22A90091C82700800520000000470060
:101C70001080400000057800DEFC0700DD22A8008F
:101C80008E40900050C2B300000CE10008003A0002
:101C9000CA882000C6FC07000020EF00004798001B
:101CA000DD22A9000A002300D2FC0700DD22A800E3
:101CB0008E40900060C2B300000CE1000C003A00BE
:101CC0008A882000BAFC07000020EF000047980037
:101CD000DD22A900419C2300C00520000000470030
:101CE0001080400000057800C2FC0700DD22A8003B
:101CF0008E40900070C2B300000CE1000C003A006E
:101D00004A882000AAFC07000020EF000047980046
:101D1000DD22A90091C82300E00520000000470053
:101D20001080400000057800B2FC0700DD22A8000A
:101D30008E40900080C2B300000CE10008003A0021
:101D40004A8720009AFC07000020EF000047980017
:101D5000DD22A9000A002200A6FC0700DD22A8005F
:101D60008E40900090C2B300000CE1000C003A00DD
:101D7000CA8720008EFC07000020EF000047980073
:101D8000DD22A900419C220020062000000047001F
:101D9000108040000005780096FC0700DD22A800B6
:101DA0008E409000A0C2B300000CE1000C003A008D
:101DB0008A8120007EFC07000020EF000047980089
:101DC000DD22A90091C82200400620000000470043
:101DD000108040000005780086FC0700DD22A80086
:101DE0008E409000B0C2B300000CE10008003A0041
:101DF0000A8820006EFC07000020EF0000479800D2
:101E0000DD22A9000A0021007AFC0700DD22A800DB
:101E10008E409000C0C2B300000CE1000C003A00FC
:101E20000A87200062FC07000020EF0000479800AE
:101E3000DD22A900419C210080062000000047000F
:101E400010804000000578006AFC0700DD22A80031
:101E50008E409000D0C2B300000CE1000C003A00AC
:101E60008A87200052FC07000020EF0000479800FE
:101E7000DD22A90091C82100A00620000000470033
:101E800010804000000578005AFC0700DD22A80001
:101E90008E409000E0C2B300000CE10008003A0060
:101EA0008A86200042FC07000020EF0000479800CF
:101EB000DD22A9001420EF004EFC0700DD22A8005F
:101EC0008E409000F0C2B300000CE1000C003A001C
:101ED0004A86200036FC07000020EF0000479800EB
:101EE000DD22A900419C2000E00620000000470000
:101EF00010804000000578003EFC0700DD22A800AD
:101F00008E40900000C3B300000CE1000B003A00CB
:101F10000A86200026FC07000020EF0000479800FA
:101F2000DD22A90091C82000780047001080400001
:101F3000000578002FFC0700DD22A8008E409000ED
:101F400010C3B300000CE1001D003A00CA85200058
:101F500017FC07000020EF0000479800DC02A900F2
:101F60000A802000BEFB0700DC02A800574D2100BC
:101F70000E20ED00FEFF3A0000000000DC02A90088
:101F80000A802000B6FB0700DC02A80061002000E8
:101F90000101B80066004700900041006100470061
:101FA000800578000105780097FC07006100470074
:101FB00000057800FEFB0700AA852000FCFB070057
:101FC0008E40900020C3B300000CE1001D003A00D9
:101FD0000A852000F6FB07000020EF00004798006C
:101FE000DC02A9000A6021009DFB0700DC02A800BA
:101FF000574D21000E20ED00FEFF3A0000000000CA
:10200000DC02A9000A60210095FB0700DC02A800A1
:10201000610020000101B800680047009000410005
:1020200061004700800578000105780076FC070014
:102030006100470000057800DDFB07006A8520008D
:10204000DBFB07008E40900030C3B300000CE100C2
:102050001D003A00CA862000D5FB07000020EF00D3
:1020600000479800DC02A9001420EF007CFB070069
:10207000DC02A800574D21000E20ED00FEFF3A00C3
:1020800000000000DC02A9001420EF0074FB070030
:10209000DC02A800610020000101B8006A004700CE
:1020A000900041006100470080057800010578003C
:1020B00055FC07006100470000057800BCFB0700E5
:1020C0008A852000BAFB07008E40900040C3B30011
:1020D000000CE1001D003A00CA842000B4FB070098
:1020E0000020EF0000479800DC02A9000A802100D0
:1020F0005BFB0700DC02A800574D21000E20ED001D
:10210000FEFF3A0000000000DC02A9000A80210066
:1021100053FB0700DC02A800610020000101B800A9
:102120006C00470090004100610047008005780086
:102130000105780034FC07006100470000057800C5
:102140009BFB07004A85200099FB07008E4090000A
:1021500050C3B300000CE1001D003A008A84200047
:1021600093FB07000020EF0000479800DC02A90065
:102170000A8022003AFB0700DC02A800574D21002C
:102180000E20ED00FEFF3A0000000000DC02A90076
:102190000A80220032FB0700DC02A8006100200058
:1021A0000101B8006E004700900041006100470047
:1021B000800578000105780013FC070061004700E6
:1021C000000578007AFB07006A84200078FB07008E
:1021D0008E40900060C3B300000CE1001D003A0087
:1021E0002A84200072FB07000020EF0000479800BF
:1021F000DC02A9000A00230019FB0700DC02A8008A
:10220000574D21000E20ED00FEFF3A0000000000B7
:10221000DC02A9000A00230011FB0700DC02A80071
:10222000610020000101B8007000470090004100EB
:10223000610047008005780001057800F2FB070087
:10224000610047000005780059FB07000A84200060
:1022500057FB07008E40900070C3B300000CE100F4
:102260001D003A00CA83200051FB07000020EF0048
:1022700000479800DC02A9000A802300F8FA070052
:10228000DC02A800574D21000E20ED00FEFF3A00B1
:1022900000000000DC02A9000A802300F0FA070019
:1022A000DC02A800610020000101B80072004700B4
:1022B000900041006100470080057800010578002A
:1022C000D1FB0700610047000005780038FB0700DC
:1022D0000A83200036FB07008E40900080C3B300C5
:1022E000000CE1001D003A008A83200030FB07004B
:1022F0000020EF0000479800DC02A9000A0022003D
:10230000D7FA0700DC02A800574D21000E20ED008F
:10231000FEFF3A0000000000DC02A9000A002200D3
:10232000CFFA0700DC02A800610020000101B8001C
:10233000740047009000410061004700800578006C
:1023400001057800B0FB0700610047000005780038
:1023500017FB07006A83200015FB07008E409000E2
:1023600090C3B300000CE1000C003A002A83200067
:102370000FFB07000020EF0000479800F4E2A800E0
:102380009801200077A026000E20ED00FEFF3A0005
:102390001020ED00FCFF3A00F4E2A9008E4090000E
:1023A000A0C3B300000CE1000C003A00CA82200078
:1023B000FFFA070010C0B30000479800F4C2A8005D
:1023C0009801200077A026000E20ED00FEFF3A00C5
:1023D0001020ED00FCFF3A00F4C2A9008E409000EE
:1023E000B0C3B300000CE1000C003A000A822000E8
:1023F000EFFA07000020EF0000479800E4E2A80091
:102400009801200077A026000E20ED00FEFF3A0084
:102410001020ED00FCFF3A00E4E2A9008E4090009D
:10242000C0C3B300000CE1000C003A004A82200057
:10243000DFFA07000020EF0000479800E4A2A800A0
:102440009801200077A026000E20ED00FEFF3A0044
:102450001020ED00FCFF3A00E4A2A9008E4090009D
:10246000D0C3B300000CE1000C003A004A81200008
:10247000CFFA07000020EF0000479800E4C2A80050
:102480009801200077A026000E20ED00FEFF3A0004
:102490001020ED00FCFF3A00E4C2A9008E4090003D
:1024A000E0C3B300000CE1000B003A00CA81200039
:1024B000BFFA07000020EF0000479800DD42A900A6
:1024C000A10F24007A00470010804000000578002A
:1024D000C8FA0700DD42A8008E409000F0C3B300A8
:1024E000000CE1000C003A004A802000B0FA07001E
:1024F0000020EF0000479800DD42A900A10F250051
:102500000002200000004700108040000005780015
:10251000B8FA0700DD42A8008E40900000C4B30066
:10252000000CE1000C003A00CA802000A0FA07006D
:102530000020EF0000479800DD42A900A10F26000F
:102540006002200000004700108040000005780075
:10255000A8FA0700DD42A8008E40900010C4B30026
:10256000000CE1000C003A008A82200090FA07007B
:102570000020EF0000479800DD42A900A10F2700CE
:10258000C0022000000047001080400000057800D5
:1025900098FA0700DD42A8008E40900020C4B300E6
:1025A000000CE1000C003A000A81200080FA0700CC
:1025B0000020EF0000479800DD42A900A10F230092
:1025C0002003200000004700108040000005780034
:1025D00088FA0700DD42A8008E40900030C4B300A6
:1025E000000CE1000C003A000A80200070FA07009D
:1025F0000020EF0000479800DD42A900A10F220053
:102600008003200000004700108040000005780093
:1026100078FA0700DD42A8008E40900040C4B30065
:10262000000CE10008003A008A80200060FA0700F0
:102630000020EF0000479800DD42A900AA0F21000A
:102640006CFA0700DD42A8008E40900050C4B30031
:10265000000CE1000C003A004A8E200054FA0700FA
:102660000020EF0000479800DD42A900A10F2000E4
:102670002004200000004700108040000005780082
:102680005CFA0700DD42A8008E40900060C4B300F1
:10269000000CE1000C003A008A8C200044FA07008C
:1026A0000020EF0000479800DD22A900A10F2400C0
:1026B00080042000000047001080400000057800E2
:1026C0004CFA0700DD22A8008E40900070C4B300D1
:1026D000000CE1000C003A008A8E200034FA07005A
:1026E0000020EF0000479800DD22A900A10F25007F
:1026F000E004200000004700108040000005780042
:102700003CFA0700DD22A8008E40900080C4B30090
:10271000000CE1000C003A008A8D200024FA07002A
:102720000020EF0000479800DD22A900A10F26003D
:1027300040052000000047001080400000057800A0
:102740002CFA0700DD22A8008E40900090C4B30050
:10275000000CE1000C003A000A8E200014FA070079
:102760000020EF0000479800DD22A900A10F2700FC
:10277000A005200000004700108040000005780000
:102780001CFA0700DD22A8008E409000A0C4B30010
:10279000000CE1000C003A004A8C200004FA07000B
:1027A0000020EF0000479800DD22A900A10F2300C0
:1027B000000620000000470010804000000578005F
:1027C0000CFA0700DD22A8008E409000B0C4B300D0
:1027D000000CE1000C003A004A8D2000F4F90700DB
:1027E0000020EF0000479800DD22A900A10F220081
:1027F00060062000000047001080400000057800BF
:10280000FCF90700DD22A8008E409000C0C4B30090
:10281000000CE1000C003A000A8D2000E4F90700EA
:102820000020EF0000479800DD22A900A10F210041
:10283000C00620000000470010804000000578001E
:10284000ECF90700DD22A8008E409000D0C4B30050
:10285000000CE1000C003A00CA8C2000D4F90700FB
:102860000020EF0000479800DD22A900A10F200002
:10287000000720000000470010804000000578009D
:10288000DCF90700DD22A80016FB3700CF06780030
:102890004F067800CF0578004F0578000080FA00D9
:0428A000FFFF3700FF
:101004000800FA0080742000304A8800209A2000EA
:10101400504A8800E09A2000404A8800F0FF2F00E0
:10102400004A88002022EF000000280022A2B70016
:101034002062A900D1FF07000001BE00803E20000D
:1010440001002000D0FF07000001BE00C9FF070017
:101054004100DE006400400080007800600047002A
:101064000A88BE008100E900030035001018D00092
:101074001090D200FBFF3700829FBE008A9FBE0003
:101084000200BE000E0190009E0190000002EB00E1
:1010940085FF07004F05BE004F01BE0020079800E2
:1010A400310798008A9FBE000200BE000E01900026
:1010B4009E0190000002EB001BFF07004F05BE00DD
:1010C4008001780001027800600047005001D100DF
:1010D400C080D300640047003008E1002090E100A4
:1010E4000700310061804100E0004A00800278007E
:1010F40001037800050178008601780002003700BA
:1011040003017800840178000280710033003A0002
:101114009AFF07000001BE00803E2000010020006D
:1011240099FF07000001BE0092FF07004100DE00A6
:1011340000A0EC0080007800600047000A88BE0030
:101144008100E900030035001018D0001090D2008F
:10115400FBFF3700829FBE000200BE000E0190001C
:101164009E0190000002EB004FFF07004F01BE00FC
:1011740020079800310798000200BE000E0190007D
:101184009E0190000002EB00E7FE0700800178005A
:1011940001027800600047005001D100C080D300F4
:1011A400640047003008E1002090E10007003100AE
:1011B40061804100E0004A00800278000103780069
:1011C40005017800860178000200370003017800E9
:1011D400840178002062A8000000370061005100FB
:1011E400E0805900401188002222A90021E2A800D1
:1011F4002342A80058FF070057FF07000080FA00A9
:0412040000000600E0
:0C0F800000E82300010020000000060033
:080F780020002000000006002B
:100F5C0058002000B71A21000E20ED00FEFF3A00C9
:0C0F6C001020ED00FCFF3A000000060021
:100F8C000000FA00020AB800500088000200B80005
:100F9C0081004200032AB800810042000080FA0060
:040FAC00000006003B
:100EAC000000FA0002000700AA070400000000007E
:100EBC000800E20002003A001000070000000600E3
:100ECC00811F78000200E20002003D00600010006B
:100EDC00E08018000600E20002003D0060011100F5
:100EEC00E0811900050007004F00E00002003B0004
:100EFC0060001000E08018000000060002000700EF
:100F0C000480BE00000006006022B800060220002B
:100F1C000000D0008180D2000482D2008582D200F1
:100F2C000000A8000202520083825A0003003B001A
:100F3C000202420083824A000000A1000603E9007D
:100F4C00F3FF3A00000006000080FA0000000600E3
:100D2C000000FA0002000700E406040000000000C6
:100D3C000800E20002003A00100007000000060064
:100D4C00839F68000200E20002003D00600010007A
:100D5C00E08018000600E20002003D006001110076
:100D6C00E0811900050007004F00E00002003B0085
:100D7C0060001000E0801800000006006022B8003F
:100D8C00060220000000D0008180D2000482D20034
:100D9C008582D2000000A8000202520083825A0011
:100DAC0003003B000202420083824A000000A100C3
:100DBC000603E900F3FF3A00000006000080FA0089
:040DCC00000006001D
:1012C4000000FA002174200062042000730520004D
:1012D400824878008348780042C7A9000080FA0059
:0412E4000000060000
:1012A8000000FA008D1F78001A20EF005BFC070091
:0C12B800CF0678000080FA00000006005D
:100424000200FA00F00F200000079800605CE10071
:10043400AB003A001A00E20001003200A0030700FA
:1004440063003700006C20000C487800A1003700DE
:10045400106C20000C4878009E003700206C2000AF
:100464000C4878009B003700306C20000C48780062
:1004740098003700406C20000C4878009500370045
:10048400506C20000C48780092003700606C20000B
:100494000C4878008F003700706C20000C487800FE
:1004A4008C003700806C20000C48780089003700ED
:1004B400906C20000C48780086003700A06C200067
:1004C4000C48780083003700B06C20000C4878009A
:1004D40080003700C06C20000C4878007D00370095
:1004E400D06C20000C4878007A003700E06C2000C3
:1004F4000C48780077003700F06C20000C48780036
:1005040074003700006D20000C487800710037003B
:10051400106D20000C4878006E003700206D20001C
:100524000C4878006B003700306D20000C487800D0
:1005340068003700406D20000C48780065003700E3
:10054400506D20000C48780062003700606D200078
:100554000C4878005F003700706D20000C4878006C
:100564005C003700806D20000C487800590037008B
:10057400906D20000C48780056003700A06D2000D4
:100584000C48780053003700B06D20000C48780008
:1005940050003700C06D20000C4878004D00370033
:1005A400D06D20000C4878004A003700E06D200030
:1005B4000C48780047003700F06D20000C487800A4
:1005C400440037000020EF00000798004100370086
:1005D4006054E1009BFF32006154E1009CFF320053
:1005E4006254E1009DFF32006354E1009EFF32003B
:1005F4006454E1009FFF32006554E100A0FF320023
:100604006654E100A1FF32006754E100A2FF32000A
:100614006854E100A3FF32006954E100A4FF3200F2
:100624006A54E100A5FF32006B54E100A6FF3200DA
:100634006C54E100A7FF32006D54E100A8FF3200C2
:100644006E54E100A9FF32006F54E100AAFF3200AA
:100654007054E100ABFF32007154E100ACFF320092
:100664007254E100ADFF32007354E100AEFF32007A
:100674007454E100AFFF32007554E100B0FF320062
:100684007654E100B1FF32007754E100B2FF32004A
:100694007854E100B3FF32007954E100B4FF320032
:1006A4007A54E100B5FF32007B54E100B6FF32001A
:1006B4007C54E100B7FF32007D54E100B8FF320002
:1006C4007E54E100B9FF32007F54E100BAFF3200EA
:1006D400BCFF37001A00E2000100320047FF0700A8
:1006E400615CE100BD003A001A00E2000100320042
:1006F400F30207006C003700C06B20000A48780042
:10070400B3003700E06B20000A487800B0003700DF
:10071400D06B20000A487800AD0037001068200034
:100724000A487800AA003700206820000A487800A8
:10073400A7003700306820000A487800A40037007A
:10074400406820000A487800A1003700E0682000D3
:100754000A4878009E003700F06820000A487800B4
:100764009B003700006920000A4878009800370091
:10077400106920000A48780095003700206920009D
:100784000A48780092003700306920000A4878004F
:100794008F003700406920000A4878008C00370039
:1007A400606920000A4878008900370070692000D9
:1007B4000A48780086003700906A20000A487800CA
:1007C40083003700806A20000A48780080003700E0
:1007D400A06A20000A4878007D003700D06A200013
:1007E4000A4878007A003700C06A20000A48780076
:1007F40077003700E06A20000A4878007400370068
:10080400F06A20000A487800710037006068200010
:100814000A4878006E003700706820000A487800A3
:100824006B003700806820000A48780068003700B1
:10083400906820000A48780065003700506A20005C
:100844000A48780062003700406A20000A487800AD
:100854005F003700706A20000A4878005C003700A7
:10086400606A20000A48780059003700B06A200006
:100874000A48780056003700306A20000A48780099
:1008840053003700706B20000A487800500037008E
:10089400606B20000A4878004D0037000020EF000C
:1008A400000798004A0037006064E10092FF3200BC
:1008B4006164E10093FF32006264E10094FF32005E
:1008C4006364E10095FF32006464E10096FF320046
:1008D4006564E10097FF32006664E10098FF32002E
:1008E4006764E10099FF32006864E1009AFF320016
:1008F4006964E1009BFF32006A64E1009CFF3200FE
:100904006B64E1009DFF32006C64E1009EFF3200E5
:100914006D64E1009FFF32006E64E100A0FF3200CD
:100924006F64E100A1FF32007064E100A2FF3200B5
:100934007164E100A3FF32007264E100A4FF32009D
:100944007364E100A5FF32007464E100A6FF320085
:100954007564E100A7FF32007664E100A8FF32006D
:100964007764E100A9FF32007864E100AAFF320055
:100974007964E100ABFF32007A64E100ACFF32003D
:100984007B64E100ADFF32007C64E100AEFF320025
:100994007D64E100AFFF32007E64E100B0FF32000D
:1009A4007F64E100B1FF320000C2B3000064E100E3
:1009B400B1FF320010C2B3000064E100B1FF3200A5
:1009C40020C2B3000064E100B1FF3200B3FF37007E
:1009D4001A00E2000100320088FE0700940037008C
:1009E4001600AE00C802A9001600AF00C802A80095
:1009F400CA0037001600AE00C822A9001600AF00D6
:100A0400C822A800C50037001600AE00D902A9000C
:100A14001600AF00D902A800C00037001600AE00CF
:100A2400D942A9001600AF00D942A800BB00370084
:100A34001600AE00D922A9001600AF00D922A800E2
:100A4400B60037001600AE00C8C2A9001600AF00F9
:100A5400C8C2A800B10037001600AE00C8E2A90061
:100A64001600AF00C8E2A800AC0037001600AE00C4
:100A7400C902A9001600AF00C902A800A7003700E8
:100A84001600AE00C922A9001600AF00C922A800B2
:100A9400A20037001600AE00E882A9001600AF00DD
:100AA400E882A8009D0037001600AE00D802A90015
:100AB4001600AF00D802A800980037001600AE0058
:100AC400D962A9001600AF00D962A80093003700CC
:100AD4001600AE00C842A9001600AF00C842A80024
:100AE4008E0037001600AE00C9C2A9001600AF0080
:100AF400C9C2A800890037001600AE00E862A90048
:100B04001600AF00E862A800840037001600AE00AB
:100B1400E8A2A9001600AF00E8A2A8007F003700F1
:100B24001600AE00C8A2A9001600AF00C8A2A80013
:100B34007A0037001600AE00F102A9001600AF00DB
:100B4400F102A800750037001600AE00D8A2A90073
:100B54001600AF00D8A2A800700037001600AE003F
:100B6400F0C2A9001600AF00F0C2A8006B00370065
:100B74001600AE00D862A9001600AF00D862A80023
:100B8400660037001600AE00D842A9001600AF0078
:100B9400D842A800610037001600AE00D822A90090
:100BA4001600AF00D822A8005C0037001600AE0083
:100BB400D882A9001600AF00D882A80057003700D9
:100BC4001600AE00F0C2A9001600AF00F0C2A800E3
:100BD400520037001600AE00F122A9001600AF0043
:100BE400F122A8004D0037001600AE00C882A9000B
:100BF4001600AF00C882A800480037001600AE00F7
:100C0400C9E2A9001600AF00C9E2A80043003700FA
:100C14001600AE00E842A9001600AF00E842A800A2
:100C24003E0037000020EF00000798003B0037002B
:100C34006054E1006AFF32006154E1006DFF32004C
:100C44006254E10070FF32006354E10073FF32002C
:100C54006454E10076FF32006654E10079FF32000B
:100C64006754E1007CFF32006854E1007FFF3200EA
:100C74006954E10082FF32006A54E10085FF3200CA
:100C84006B54E10088FF32006C54E1008BFF3200AA
:100C94006D54E1008EFF32006E54E10091FF32008A
:100CA4007054E10094FF32007154E10097FF320068
:100CB4007254E1009AFF32007354E1009DFF320048
:100CC4007454E100A0FF32007554E100A3FF320028
:100CD4007654E100A6FF32007754E100A9FF320008
:100CE4007854E100ACFF32007954E100AFFF3200E8
:100CF4007A54E100B2FF32007B54E100B5FF3200C8
:100D04007C54E100B8FF32007D54E100BBFF3200A7
:100D14007E54E100BEFF3200C2FF37000E00900097
:080D24000080FA000000060047
:100400000000FA002174200062042000730520001F
:10041000824878008348780042C7A8000080FA002C
:0404200000000600D2
:1012E8000000FA00CEB897003EBA97002EB99700D2
:1012F8009EB997004022EF004222EF0000732000C1
:10130800204A8800A07F2000104A88000B00750042
:101318000C0070000D0070000100700004007000E7
:1013280082007000202420000388700040C2A900B9
:0C13380041E2A8000080FA00000006005E
:10135C000000FA002282BF00610060000080FA00E9
:04136C000000060077
:101344000000FA0000000000000000002682BF0038
:081354000080FA000000060011
:100FB0000000FA000220EF001A4078006004E1000F
:100FC0000A0032008A1F78000085FB00B0FF07008E
:100FD0004F05780061C04000804078000080FB0031
:100FE0000000450010407800F4FF37000080FA0050
:040FF00000000600F7
:100E90000000FA002302AF0001003700FDFF370019
:0C0EA0002A1188000080FA000000060003
:100FF4000000FA0099FF07000080FA0000000600D4
:100E60000000FA0040C2A9004022AE000100370095
:100E7000FDFF37004A1288004002AF000100370032
:100E8000FDFF37004882BF000080FA000000060026
:101208000000FA008A1F78000820EF000A00780022
:101218006050E10003003D0014002000600015004C
:101228000000370000057800E7FE07006300200093
:10123800040178006018E10006003600838045004C
:101248006180510000804500904878000620ED003C
:10125800F8FF370000C2B300804D78000400E200B8
:101268000C0032000420EF00028045009040780016
:1012780000C2B300000CE10002003A000420EC00B8
:10128800F9FF37006100510080804500D0C2B300EB
:10129800804878004F0578000080FA0000000600BA
:100DD0000200FA000420EF006514E1000600310073
:100DE0000280FB008080450000C2B300804878008C
:100DF0000460EC00F8FF37000280FB0080804500B3
:100E00000020EF0080487800E14151000380FB00A2
:100E10000080450000079800A20020001100090092
:100E20000285D80000032000808040000E00900062
:100E300001487800A2002000110009000285D800B6
:100E4000000578006000E10001003A000200370070
:100E50000660ED00EDFF37000080FA00000006009C
:1028A4000A8020000B002000A50009000B1D780001
:0428B400000006001A
:1028B80001802000000028009F000900B01878005F
:0428C8000000060006
:020000040001F9
:080000006F6B00000D00000011
:080008006F6B00000D00000009
:080010006F6B00000D00000001
:080018006F6B00000D000000F9
:080020006F6B00000D000000F1
:080028006F6B00000D000000E9
:080030006F6B00000D000000E1
:080038006F6B00000D000000D9
:080040006F6B00000D000000D1
:080048006F6B00000D000000C9
:080050006F6B00000D000000C1
:080058006F6B00000D000000B9
:040060000D0000008F
:080064006F6B00000D000000AD
:04006C000D00000083
:080070006F6B00000D000000A1
:080078006F6B00000D00000099
:040080000D0000006F
:080084006F6B00000D0000008D
:04008C000D00000063
:080090006F6B00000D00000081
:080098006F6B00000D00000079
:0800A0006F6B00000D00000071
:0400A8000D00000047
:0400AC000D00000043
:0400B0000D0000003F
:0400B4000D0000003B
:0800B8006F6B00000D00000059
:0800C0006F6B00000D00000051
:0800C8006F6B00000D00000049
:0800D0006F6B00000D00000041
:0800D8006F6B00000D00000039
:0800E0006F6B00000D00000031
:0800E8006F6B00000D00000029
:0800F0006F6B00000D00000021
:0800F8006F6B00000D00000019
:080100006F6B00000D00000010
:080108006F6B00000D00000008
:080110006F6B00000D00000000
:080118006F6B00000D000000F8
:080120006F6B00000D000000F0
:080128006F6B00000D000000E8
:080130006F6B00000D000000E0
:080138006F6B00000D000000D8
:080140006F6B00000D000000D0
:080148006F6B00000D000000C8
:080150006F6B00000D000000C0
:080158006F6B00000D000000B8
:080160006F6B00000D000000B0
:080168006F6B00000D000000A8
:080170006F6B00000D000000A0
:080178006F6B00000D00000098
:080180006F6B00000D00000090
:080188006F6B00000D00000088
:080190006F6B00000D00000080
:080198006F6B00000D00000078
:0801A0006F6B00000D00000070
:0801A8006F6B00000D00000068
:0801B0006F6B00000D00000060
:0801B8006F6B00000D00000058
:0801C0006F6B00000D00000050
:0801C8006F6B00000D00000048
:0801D0006F6B00000D00000040
:0801D8006F6B00000D00000038
:0801E0006F6B00000D00000030
:0801E8006F6B00000D00000028
:0801F0006F6B00000D00000020
:0801F8006F6B00000D00000018
:080200006F6B00000D0000000F
:080208006F6B00000D00000007
:080210006F6B00000D000000FF
:080218006F6B00000D000000F7
:080220006F6B00000D000000EF
:080228006F6B00000D000000E7
:080230006F6B00000D000000DF
:080238006F6B00000D000000D7
:080240006F6B00000D000000CF
:080248006F6B00000D000000C7
:080250006F6B00000D000000BF
:080258006F6B00000D000000B7
:080260006F6B00000D000000AF
:080268006F6B00000D000000A7
:080270006F6B00000D0000009F
:080278006F6B00000D00000097
:04028000000000007A
:040284002C0000004A
:04028800380000003A
:04028C003E00000030
:040290002C0000003E
:040294003E00000028
:040298002C00000036
:04029C003800000026
:0402A000FDFF00005E
:0402A4000000000056
:0402A8000000000052
:0402AC00000000004E
:0402B000000000004A
:0402B4000000000046
:0402B8000000000042
:0402BC00000000003E
:0402C000000000003A
:0402C4000000000036
:0402C8000000000032
:0402CC00000000002E
:0402D000000000002A
:0402D4000000000026
:0402D8000000000022
:0402DC00000000001E
:0402E000000000001A
:0402E4000000000016
:0402E8000000000012
:0402EC00000000000E
:0402F000000000000A
:0402F4000000000006
:0402F8000000000002
:0402FC0000000000FE
:0403000000000000F9
:0403040000000000F5
:0403080000000000F1
:04030C0000000000ED
:0403100000000000E9
:0403140000000000E5
:0403180000000000E1
:04031C0000000000DD
:0403200000000000D9
:0403240000000000D5
:0403280000000000D1
:04032C0000000000CD
:0403300000000000C9
:0403340000000000C5
:0403380000000000C1
:04033C0000000000BD
:0403400000000000B9
:0403440000000000B5
:0403480000000000B1
:04034C0000000000AD
:0403500000000000A9
:0403540000000000A5
:020000040002F8
:10AFF0003FFF0000FFFE0000BEFA00009F3F000080
:00000001FF
