:10000000420C04000000000000000000000000009E
:1000100000000000000000000000000000000000E0
:1000200000000000000000000000000000000000D0
:1000300000000000000000000000000000000000C0
:1000400000000000000000000000000000000000B0
:1000500000000000000000000000000000000000A0
:100060000000000000000000000000000000000090
:1000700000000000000000001A0C0000000000005A
:100080000000000000000000000000000000000070
:10009000000000000000000000000000E20B000073
:1000A0000000000000000000000000000000000050
:1000B0000000000000000000000000000000000040
:1000C0000000000000000000000000000000000030
:1000D0000000000000000000000000000000000020
:1000E0000000000000000000000000000000000010
:1000F0000000000000000000000000005C0D000097
:1001000000000000000000000000000000000000EF
:1001100000000000000000000000000000000000DF
:1001200000000000000000000000000000000000CF
:1001300000000000000000000000000000000000BF
:101884006F942000F07F220020A0B70010202000D9
:1018940032A0B700400020004420B700860D0200AB
:1018A40000000000900D0200000000008A1F780074
:1018B4008B1F78008C1F7800F0EE2700C8A2B700B9
:1018C400F0FF2F00D0A2B700F0FF2F00D8A2B7007E
:1018D400F0FF2F00E0A2B700E822EF0030FF2F0056
:1018E400F0A2B700E624EF00E224EF000A58220039
:1018F4000B0020002FFE07000A5822000B002000D6
:1019040025FF0700E8032000379120000E20ED009A
:10191400FEFF3A001020ED00FCFF3A00000000003A
:10192400CD02A8009DFF0700CCC1B3001BC0B300CB
:10193400CAC1B300E7FD07003CC0B3001620EF00A6
:101944002AC1B300E3FD07000CC2B3001BC0B300FF
:10195400EAC0B300DFFD0700CCC1B3001620EF00DE
:10196400DAC1B300DBFD07003CC0B3001BC0B30009
:101974006AC1B300D7FD07004CC0B3001BC0B3005D
:101984009AC1B300D3FD07005CC0B3001BC0B30011
:101994004AC1B300CFFD0700A5FA070081E0A90002
:1019A40085FE0700DA82AF0003003700DAA2AF0039
:1019B400010037009680A800804180006100E100AA
:1019C40003003A00CAFD07000020EF0080418800B0
:1019D400C04180006100E10017003A00DA82AE00E5
:1019E40015003700C2FD07000020EF00C041880049
:1019F4007800200017A821000E20ED00FEFF3A0019
:101A04001020ED00FCFF3A009B002000AA83200078
:101A1400BFFE0700608320001000E00006003200D3
:101A2400DA82AF0003003700B1FD07000020EF00A9
:101A3400B0418800F7FF3700904180006100E10069
:101A440017003A00DAA2AE0015003700A8FD07001F
:101A54000020EF00904188007800200017A82100A2
:101A64000E20ED00FEFF3A001020ED00FCFF3A00CE
:101A74009B002000AA832000A5FE070040832000CD
:101A84001000E00006003200DAA2AF0003003700C5
:101A940097FD07000020EF00A0418800F7FF370002
:101AA400BFFF37004F067800CF0578004F05780058
:041AB400FFFF3700F9
:1011B8000800FA000020200080458800E020200078
:1011C80050458800E024200060458800F0FF2F008B
:1011D800704588002022EF000000280022A2B700F6
:1011E8002062A9008CFF07000001BE00803E20009D
:1011F800010020004CFF07000001BE0089FF070026
:101208004100DE0064004000800078006000470074
:101218000A88BE008100E900030035001018D000DC
:101228001090D200FBFF3700829FBE008A9FBE004D
:101238000200BE000E0190009E0190000002EB002B
:1012480042FF07004F05BE004F01BE00200798006F
:10125800310798008A9FBE000200BE000E01900070
:101268009E0190000002EB0070FF07004F05BE00D2
:101278008001780001027800600047005001D10029
:10128800C080D300640047003008E1002090E100EE
:101298000700310061804100E0004A0080027800C8
:1012A8000103780005017800860178000200370004
:1012B80003017800840178000280710033003A004D
:1012C80055FF07000001BE00803E200001002000FD
:1012D80015FF07000001BE0052FF07004100DE00B5
:1012E80000A0EC0080007800600047000A88BE007B
:1012F8008100E900030035001018D0001090D200DA
:10130800FBFF3700829FBE000200BE000E01900066
:101318009E0190000002EB000CFF07004F01BE0089
:1013280020079800310798000200BE000E019000C7
:101338009E0190000002EB003CFF0700800178004E
:1013480001027800600047005001D100C080D3003E
:10135800640047003008E1002090E10007003100F8
:1013680061804100E0004A008002780001037800B3
:101378000501780086017800020037000301780033
:10138800840178002062A800000037006100510045
:10139800E0805900401188002222A90021E2A8001B
:1013A8002342A80015FF070014FF07000080FA0079
:0413B800000006002B
:0C10200000E82300010020000000060092
:08102C00200020000000060076
:1010040058002000B71A21000E20ED00FEFF3A0020
:0C1014001020ED00FCFF3A000000060078
:100F30000000FA00020AB800500088000200B80061
:100F400081004200032AB800810042000080FA00BC
:040F50000000060097
:100F54000000FA0002000700FE0704000000000081
:100F64000800E20002003A0010000700000006003A
:100F7400811F78000200E20002003D0060001000C2
:100F8400E08018000600E20002003D00600111004C
:100F9400E0811900050007004F00E00002003B005B
:100FA40060001000E0801800000006000200070046
:100FB4000480BE00000006006022B8000602200083
:100FC4000000D0008180D2000482D2008582D20049
:100FD4000000A8000202520083825A0003003B0072
:100FE4000202420083824A000000A1000603E900D5
:100FF400F3FF3A00000006000080FA00000006003B
:101034000000FA0002000700680804000000000035
:101044000800E20002003A00100007000000060059
:10105400839F68000200E20002003D00600010006F
:10106400E08018000600E20002003D00600111006B
:10107400E0811900050007004F00E00002003B007A
:1010840060001000E0801800000006006022B80034
:10109400060220000000D0008180D2000482D20029
:1010A4008582D2000000A8000202520083825A0006
:1010B40003003B000202420083824A000000A100B8
:1010C4000603E900F3FF3A00000006000080FA007E
:0410D4000000060012
:10159C000800FA006030200080458800A02C200054
:1015AC0050458800002C200060458800F0FF2F007B
:1015BC00704588005022EF000000280052A2B700AE
:1015CC005062A90093FE07000001BE00803E20007F
:1015DC000100200053FE07000001BE0090FE070032
:1015EC004100DE006400400080007800600047008D
:1015FC000A88BE008100E900030035001018D000F5
:10160C001090D200FBFF3700829FBE008A9FBE0065
:10161C000200BE000E0190009E0190000002EB0043
:10162C0049FE07004F05BE004F01BE002007980081
:10163C00310798008A9FBE000200BE000E01900088
:10164C009E0190000002EB0077FE07004F05BE00E4
:10165C008001780001027800600047005001D10041
:10166C00C080D300640047003008E1002090E10006
:10167C000700310061804100E0004A0080027800E0
:10168C00010378000501780086017800020037001C
:10169C0003017800840178000280710033003A0065
:1016AC005CFE07000001BE00803E2000010020000F
:1016BC001CFE07000001BE0059FE07004100DE00C1
:1016CC0000A0EC0080007800600047000A88BE0093
:1016DC008100E900030035001018D0001090D200F2
:1016EC00FBFF3700829FBE000200BE000E0190007F
:1016FC009E0190000002EB0013FE07004F01BE009C
:10170C0020079800310798000200BE000E019000DF
:10171C009E0190000002EB0043FE07008001780060
:10172C0001027800600047005001D100C080D30056
:10173C00640047003008E1002090E1000700310010
:10174C0061804100E0004A008002780001037800CB
:10175C00050178008601780002003700030178004B
:10176C00840178005062A80000003700610051002D
:10177C00E0805900C01288005222A90051E2A80052
:10178C005342A8001CFE07001BFE07000080FA0055
:04179C000000060043
:1017A0000000FA002174200062042000730520006C
:1017B000824878008348780042C7A9000080FA0078
:0417C000000006001F
:1010D8000000FA008D1F78001A20EF0050FD07006D
:0C10E800CF0678000080FA00000006002F
:100628000200FA00F00F200000079800605CE1006B
:10063800AB003A001A00E20001003200560407003D
:1006480063003700006C20000C487800A1003700D8
:10065800106C20000C4878009E003700206C2000A9
:100668000C4878009B003700306C20000C4878005C
:1006780098003700406C20000C487800950037003F
:10068800506C20000C48780092003700606C200005
:100698000C4878008F003700706C20000C487800F8
:1006A8008C003700806C20000C48780089003700E7
:1006B800906C20000C48780086003700A06C200061
:1006C8000C48780083003700B06C20000C48780094
:1006D80080003700C06C20000C4878007D0037008F
:1006E800D06C20000C4878007A003700E06C2000BD
:1006F8000C48780077003700F06C20000C48780030
:1007080074003700006D20000C4878007100370035
:10071800106D20000C4878006E003700206D200016
:100728000C4878006B003700306D20000C487800CA
:1007380068003700406D20000C48780065003700DD
:10074800506D20000C48780062003700606D200072
:100758000C4878005F003700706D20000C48780066
:100768005C003700806D20000C4878005900370085
:10077800906D20000C48780056003700A06D2000CE
:100788000C48780053003700B06D20000C48780002
:1007980050003700C06D20000C4878004D0037002D
:1007A800D06D20000C4878004A003700E06D20002A
:1007B8000C48780047003700F06D20000C4878009E
:1007C800440037000020EF00000798004100370080
:1007D8006054E1009BFF32006154E1009CFF32004D
:1007E8006254E1009DFF32006354E1009EFF320035
:1007F8006454E1009FFF32006554E100A0FF32001D
:100808006654E100A1FF32006754E100A2FF320004
:100818006854E100A3FF32006954E100A4FF3200EC
:100828006A54E100A5FF32006B54E100A6FF3200D4
:100838006C54E100A7FF32006D54E100A8FF3200BC
:100848006E54E100A9FF32006F54E100AAFF3200A4
:100858007054E100ABFF32007154E100ACFF32008C
:100868007254E100ADFF32007354E100AEFF320074
:100878007454E100AFFF32007554E100B0FF32005C
:100888007654E100B1FF32007754E100B2FF320044
:100898007854E100B3FF32007954E100B4FF32002C
:1008A8007A54E100B5FF32007B54E100B6FF320014
:1008B8007C54E100B7FF32007D54E100B8FF3200FC
:1008C8007E54E100B9FF32007F54E100BAFF3200E4
:1008D800BCFF37001A00E20001003200D3FE070017
:1008E800615CE100BD003A001A00E200010032003C
:1008F800A90307006C003700C06B20000A48780085
:10090800B3003700E06B20000A487800B0003700D9
:10091800D06B20000A487800AD003700106820002E
:100928000A487800AA003700206820000A487800A2
:10093800A7003700306820000A487800A400370074
:10094800406820000A487800A1003700E0682000CD
:100958000A4878009E003700F06820000A487800AE
:100968009B003700006920000A487800980037008B
:10097800106920000A487800950037002069200097
:100988000A48780092003700306920000A48780049
:100998008F003700406920000A4878008C00370033
:1009A800606920000A4878008900370070692000D3
:1009B8000A48780086003700906A20000A487800C4
:1009C80083003700806A20000A48780080003700DA
:1009D800A06A20000A4878007D003700D06A20000D
:1009E8000A4878007A003700C06A20000A48780070
:1009F80077003700E06A20000A4878007400370062
:100A0800F06A20000A48780071003700606820000A
:100A18000A4878006E003700706820000A4878009D
:100A28006B003700806820000A48780068003700AB
:100A3800906820000A48780065003700506A200056
:100A48000A48780062003700406A20000A487800A7
:100A58005F003700706A20000A4878005C003700A1
:100A6800606A20000A48780059003700B06A200000
:100A78000A48780056003700306A20000A48780093
:100A880053003700706B20000A4878005000370088
:100A9800606B20000A4878004D0037000020EF0006
:100AA800000798004A0037006064E10092FF3200B6
:100AB8006164E10093FF32006264E10094FF320058
:100AC8006364E10095FF32006464E10096FF320040
:100AD8006564E10097FF32006664E10098FF320028
:100AE8006764E10099FF32006864E1009AFF320010
:100AF8006964E1009BFF32006A64E1009CFF3200F8
:100B08006B64E1009DFF32006C64E1009EFF3200DF
:100B18006D64E1009FFF32006E64E100A0FF3200C7
:100B28006F64E100A1FF32007064E100A2FF3200AF
:100B38007164E100A3FF32007264E100A4FF320097
:100B48007364E100A5FF32007464E100A6FF32007F
:100B58007564E100A7FF32007664E100A8FF320067
:100B68007764E100A9FF32007864E100AAFF32004F
:100B78007964E100ABFF32007A64E100ACFF320037
:100B88007B64E100ADFF32007C64E100AEFF32001F
:100B98007D64E100AFFF32007E64E100B0FF320007
:100BA8007F64E100B1FF320000C2B3000064E100DD
:100BB800B1FF320010C2B3000064E100B1FF32009F
:100BC80020C2B3000064E100B1FF3200B3FF370078
:100BD8001A00E2000100320014FE070094003700FA
:100BE8001600AE00C802A9001600AF00C802A8008F
:100BF800CA0037001600AE00C822A9001600AF00D0
:100C0800C822A800C50037001600AE00D902A90006
:100C18001600AF00D902A800C00037001600AE00C9
:100C2800D942A9001600AF00D942A800BB0037007E
:100C38001600AE00D922A9001600AF00D922A800DC
:100C4800B60037001600AE00C8C2A9001600AF00F3
:100C5800C8C2A800B10037001600AE00C8E2A9005B
:100C68001600AF00C8E2A800AC0037001600AE00BE
:100C7800C902A9001600AF00C902A800A7003700E2
:100C88001600AE00C922A9001600AF00C922A800AC
:100C9800A20037001600AE00E882A9001600AF00D7
:100CA800E882A8009D0037001600AE00D802A9000F
:100CB8001600AF00D802A800980037001600AE0052
:100CC800D962A9001600AF00D962A80093003700C6
:100CD8001600AE00C842A9001600AF00C842A8001E
:100CE8008E0037001600AE00C9C2A9001600AF007A
:100CF800C9C2A800890037001600AE00E862A90042
:100D08001600AF00E862A800840037001600AE00A5
:100D1800E8A2A9001600AF00E8A2A8007F003700EB
:100D28001600AE00C8A2A9001600AF00C8A2A8000D
:100D38007A0037001600AE00F102A9001600AF00D5
:100D4800F102A800750037001600AE00D8A2A9006D
:100D58001600AF00D8A2A800700037001600AE0039
:100D6800F0C2A9001600AF00F0C2A8006B0037005F
:100D78001600AE00D862A9001600AF00D862A8001D
:100D8800660037001600AE00D842A9001600AF0072
:100D9800D842A800610037001600AE00D822A9008A
:100DA8001600AF00D822A8005C0037001600AE007D
:100DB800D882A9001600AF00D882A80057003700D3
:100DC8001600AE00F0C2A9001600AF00F0C2A800DD
:100DD800520037001600AE00F122A9001600AF003D
:100DE800F122A8004D0037001600AE00C882A90005
:100DF8001600AF00C882A800480037001600AE00F1
:100E0800C9E2A9001600AF00C9E2A80043003700F4
:100E18001600AE00E842A9001600AF00E842A8009C
:100E28003E0037000020EF00000798003B00370025
:100E38006054E1006AFF32006154E1006DFF320046
:100E48006254E10070FF32006354E10073FF320026
:100E58006454E10076FF32006654E10079FF320005
:100E68006754E1007CFF32006854E1007FFF3200E4
:100E78006954E10082FF32006A54E10085FF3200C4
:100E88006B54E10088FF32006C54E1008BFF3200A4
:100E98006D54E1008EFF32006E54E10091FF320084
:100EA8007054E10094FF32007154E10097FF320062
:100EB8007254E1009AFF32007354E1009DFF320042
:100EC8007454E100A0FF32007554E100A3FF320022
:100ED8007654E100A6FF32007754E100A9FF320002
:100EE8007854E100ACFF32007954E100AFFF3200E2
:100EF8007A54E100B2FF32007B54E100B5FF3200C2
:100F08007C54E100B8FF32007D54E100BBFF3200A1
:100F18007E54E100BEFF3200C2FF37000E00900091
:080F28000080FA000000060041
:100434000000FA00217420006204200073052000EB
:10044400824878008348780042C7A8000080FA00F8
:04045400000006009E
:1013BC008A1F78008B1F78008C1F780034FC070084
:1013CC000000E2004C0032000CC1B3006B8A20001C
:1013DC006A93200033FC0700CB8920006A9320001D
:1013EC001AFC07006000E10004003A009B0020009A
:1013FC003A842000440007003F003700CB842000D3
:10140C006A93200011FC07006000E10004003A0020
:10141C009B0020006A8720003B0007003600370045
:10142C000B8920006A93200008FC07006000E10093
:10143C0004003A009B0020003A8120003200070093
:10144C002D0037000B8020006A932000FFFB070063
:10145C006000E10004003A009B002000AA802000FC
:10146C0029000700240037006B8220006A932000BB
:10147C00F6FB07006000E10004003A009B0020002E
:10148C00FA872000200007001B0037008B88200003
:10149C006A932000EDFB07006000E10004003A00B5
:1014AC009B002000FA87200017000700120037006D
:1014BC00CB8120006A932000E4FB07006000E10070
:1014CC0006003A004A86200035FC07009B002000ED
:1014DC00DA8620000C00070007003700CB852000BF
:1014EC006A932000D9FB07006000E10002003A007B
:1014FC000000FE00000037004F067800CF05780092
:08150C004F0578000000060005
:10049C000000FA002282BF00610060000080FA00B8
:0404AC000000060046
:1004B0000000FA000420EF000020EF000042780066
:1004C0001840E2002A003200F0CFB3000064E100DF
:1004D000020032006140560000467800EFFF07003E
:1004E0006000E10001003A00FCFF3700CBFF07008D
:1004F000804178008280FB008100450080487800C0
:100500000460EC000480FB0000804500101CE1004A
:1005100002003A00E1414200070037000020EF00EE
:100520001B1CE10003003A000060EC0080417800F1
:1005300001003700804178000380FB000080450007
:10054000104078006004E10007003A008280FB0060
:100550000380FB0000805000800045000020EF0079
:10056000804878000400370003427800D4FF370049
:100570000020EF00004D78000080FA000000060027
:10041C000000FA0000000000000000002682BF006F
:08042C000080FA000000060048
:100458000000FA001A04E000080032001A40780090
:100468001B04E10005003A00610045000005780022
:100478006180450080057800F6FF37001B40780052
:100488009A80FB000080FB00008050000080FA008A
:04049800000006005A
:101514008C1F78008D1F78000020EF00A049880000
:10152400409320001058E100180034008A9FBE0048
:10153400FDFF2F000C2C20006B302000AA2C200073
:101544002AFC07004F05BE00409320001000450010
:101554008A1F78001085FB002BFC07004F057800DC
:101564008A9FBE00FDFF2F00EC2420000B202000EA
:10157400EA2020001DFC07004F05BE0011002000DA
:101584004093200010884000E5FF3700CF06780024
:081594004F067800000006007C
:1005F0000000FA005A4588008B4588006C45880049
:0C0600007D4588000080FA000000060024
:10060C000000FA005302AF0001003700FDFF370075
:0C061C00AA1288000080FA00000006000E
:1005AC000000FA000220EF001A4078006004E1001D
:1005BC000A0032008A1F78000085FB008DFF0700BF
:1005CC004F05780061C04000804078000080FB003F
:1005DC000000450010407800F4FF37000080FA005E
:0405EC000000060005
:100400000000FA002302AF0001003700FDFF3700B3
:0C0410002A1188000080FA00000006009D
:1010F4000200FA008A1F78008B1F78002342A9009F
:101104002222A8005222A800574123000E20ED00FD
:10111400FEFF3A00000000002342A8002222A9009A
:101124005222A9009B0020003A842000F800070006
:10113400904580006900E1001A003C000020EF00A7
:10114400A04988000DFD0700419320001100E10033
:1011540013003600418B2000409320001080400093
:10116400000798000AFD07008E0090008048780070
:10117400418B200040932000108040001085FB002C
:101184009EFC070011002000208B200010884000E6
:10119400110020004093200010884000E9FF370030
:1011A400E3FF3700CF0578004F0578000080FA0090
:0411B4000000060031
:100580000000FA005282BF00610060000080FA00A3
:040590000000060061
:100594000000FA0000000000000000005682BF00C6
:0805A4000080FA0000000600CF
:101B0C000A8020000B002000A20009000B1D7800A9
:041B1C0000000600BF
:101B2000018020000000280053000900B018780050
:081B3000B05878000000060027
:101AB8003400F8003200F8003600F800801F780083
:101AC800200020000C000900B01F780086A0A900A3
:101AD80010002000904188009680A90097A0A900D6
:101AE8009AA0A900A00120000C0009004F1078005E
:101AF8004F0078003600F9003200F9003400F90090
:041B08000040060093
:1017C4003400F8003200F8003600F800801F78007A
:1017D400200020000C000900B01F78008A1F780048
:1017E4008B1F780087A0A90010002000C04188004A
:1017F4009B002000AA83200045FF07009680A800D4
:1018040097A0A9009AA0A800CF0578004F057800FA
:10181400A00120000C0009004F1078004F00780050
:101824003600F9003200F9003400F90000400600E7
:101834003400F8003200F8003600F800801F780009
:10184400200020000C000900B01F78008680A90049
:1018540010002000804188009680A90097A0A8006D
:10186400A00120000C0009004F1078004F00780000
:101874003600F9003200F9003400F9000040060097
:020000040001F9
:10000000524F000052410000543500000000000033
:0400100000000000EC
:1000140001010000000000000000000000050000D5
:1000240007010000040000000000000000000000C0
:0400340000050000C3
:10003800535400004F500000000000000000000072
:0400480000000000B4
:10004C00524F00004C4100005435000000000000ED
:04005C0000000000A0
:04006000000000009C
:040064000000000098
:040068000100000093
:04006C00010000008F
:04007000000000008C
:100074000101000000000000000000000005000075
:10008400070100000601000000000000000000005D
:040094000008000060
:1000980053450000545F0000305F0000504F0000DF
:1000A80053000000000000000000000000000000F5
:1000B80052450000534500005400000000000000B5
:1000C800537400006F700000706500006421000028
:1000D8000001000003000000000000000000000014
:0400E8000A0E0000FC
:1000EC0001050000010000000000000000000000FD
:1000FC0007010000020000000000000000000000EA
:04010C0005080000E2
:100110005354000041520000540000000000000051
:100120004D5600005F410000425300005F30000068
:080130000000000000000000C7
:1001380047450000545F0000504F00005300000086
:0401480000000000B3
:08014C000D0A00000000000094
:020000040002F8
:10AFF0007FFF0000FFFE0000BEFA00009F3F000040
:00000001FF
