:020000040000fa
:080000000002040000000000f2
:020000040000fa
:040008000e040000e2
:020000040000fa
:04000c0014030000d9
:020000040000fa
:040010005603000093
:020000040000fa
:0400140034030000b1
:020000040000fa
:04001800760300006b
:020000040000fa
:04001c000e040000ce
:020000040000fa
:040020000e040000ca
:020000040000fa
:040024000e040000c6
:020000040000fa
:04002800960300003b
:020000040000fa
:04002c000e040000be
:020000040000fa
:040030000e040000ba
:020000040000fa
:040034000e040000b6
:020000040000fa
:040038000e040000b2
:020000040000fa
:04003c000e040000ae
:020000040000fa
:040040000e040000aa
:020000040000fa
:040044000e040000a6
:020000040000fa
:040048000e040000a2
:020000040000fa
:04004c000e0400009e
:020000040000fa
:040050000e0400009a
:020000040000fa
:040054000e04000096
:020000040000fa
:040058000e04000092
:020000040000fa
:04005c000e0400008e
:020000040000fa
:040060000e0400008a
:020000040000fa
:040064000e04000086
:020000040000fa
:040068000e04000082
:020000040000fa
:04006c000e0400007e
:020000040000fa
:040070000e0400007a
:020000040000fa
:040074000e04000076
:020000040000fa
:04007800b4030000cd
:020000040000fa
:04007c000e0400006e
:020000040000fa
:040080000e0400006a
:020000040000fa
:040084000e04000066
:020000040000fa
:040088000e04000062
:020000040000fa
:04008c000e0400005e
:020000040000fa
:040090000e0400005a
:020000040000fa
:040094000e04000056
:020000040000fa
:040098000e04000052
:020000040000fa
:04009c00d20300008b
:020000040000fa
:0400a0000e0400004a
:020000040000fa
:0400a4000e04000046
:020000040000fa
:0400a8000e04000042
:020000040000fa
:0400ac000e0400003e
:020000040000fa
:0400b0000e0400003a
:020000040000fa
:0400b4000e04000036
:020000040000fa
:0400b8000e04000032
:020000040000fa
:0400bc000e0400002e
:020000040000fa
:0400c0000e0400002a
:020000040000fa
:0400c4000e04000026
:020000040000fa
:0400c8000e04000022
:020000040000fa
:0400cc000e0400001e
:020000040000fa
:0400d0000e0400001a
:020000040000fa
:0400d4000e04000016
:020000040000fa
:0400d8000e04000012
:020000040000fa
:0400dc000e0400000e
:020000040000fa
:0400e0000e0400000a
:020000040000fa
:0400e4000e04000006
:020000040000fa
:0400e8000e04000002
:020000040000fa
:0400ec000e040000fe
:020000040000fa
:0400f0000e040000fa
:020000040000fa
:0400f4000e040000f6
:020000040000fa
:0400f8000e040000f2
:020000040000fa
:0400fc00f00300000d
:020000040000fa
:040100000e040000e9
:020000040000fa
:040104000e040000e5
:020000040000fa
:040108000e040000e1
:020000040000fa
:04010c000e040000dd
:020000040000fa
:040110000e040000d9
:020000040000fa
:040114000e040000d5
:020000040000fa
:040118000e040000d1
:020000040000fa
:04011c000e040000cd
:020000040000fa
:040120000e040000c9
:020000040000fa
:040124000e040000c5
:020000040000fa
:040128000e040000c1
:020000040000fa
:04012c000e040000bd
:020000040000fa
:040130000e040000b9
:020000040000fa
:040134000e040000b5
:020000040000fa
:040138000e040000b1
:020000040000fa
:04013c000e040000ad
:020000040000fa
:040140000e040000a9
:020000040000fa
:040144000e040000a5
:020000040000fa
:040148000e040000a1
:020000040000fa
:04014c000e0400009d
:020000040000fa
:040150000e04000099
:020000040000fa
:040154000e04000095
:020000040000fa
:040158000e04000091
:020000040000fa
:04015c000e0400008d
:020000040000fa
:040160000e04000089
:020000040000fa
:040164000e04000085
:020000040000fa
:040168000e04000081
:020000040000fa
:04016c000e0400007d
:020000040000fa
:040170000e04000079
:020000040000fa
:040174000e04000075
:020000040000fa
:040178000e04000071
:020000040000fa
:04017c000e0400006d
:020000040000fa
:040180000e04000069
:020000040000fa
:040184000e04000065
:020000040000fa
:040188000e04000061
:020000040000fa
:04018c000e0400005d
:020000040000fa
:040190000e04000059
:020000040000fa
:040194000e04000055
:020000040000fa
:040198000e04000051
:020000040000fa
:04019c000e0400004d
:020000040000fa
:0401a0000e04000049
:020000040000fa
:0401a4000e04000045
:020000040000fa
:0401a8000e04000041
:020000040000fa
:0401ac000e0400003d
:020000040000fa
:0401b0000e04000039
:020000040000fa
:0401b4000e04000035
:020000040000fa
:0401b8000e04000031
:020000040000fa
:0401bc000e0400002d
:020000040000fa
:0401c0000e04000029
:020000040000fa
:0401c4000e04000025
:020000040000fa
:0401c8000e04000021
:020000040000fa
:0401cc000e0400001d
:020000040000fa
:0401d0000e04000019
:020000040000fa
:0401d4000e04000015
:020000040000fa
:0401d8000e04000011
:020000040000fa
:0401dc000e0400000d
:020000040000fa
:0401e0000e04000009
:020000040000fa
:0401e4000e04000005
:020000040000fa
:0401e8000e04000001
:020000040000fa
:0401ec000e040000fd
:020000040000fa
:0401f0000e040000f9
:020000040000fa
:0401f4000e040000f5
:020000040000fa
:0401f8000e040000f1
:020000040000fa
:0401fc000e040000ed
:020000040000fa
:040208000e040000e0
:020000040000fa
:04020c0014030000d7
:020000040000fa
:040210005603000091
:020000040000fa
:0402140034030000af
:020000040000fa
:040218007603000069
:020000040000fa
:04021c000e040000cc
:020000040000fa
:040220000e040000c8
:020000040000fa
:040224000e040000c4
:020000040000fa
:040228009603000039
:020000040000fa
:04022c000e040000bc
:020000040000fa
:040230000e040000b8
:020000040000fa
:040234000e040000b4
:020000040000fa
:040238000e040000b0
:020000040000fa
:04023c000e040000ac
:020000040000fa
:040240000e040000a8
:020000040000fa
:040244000e040000a4
:020000040000fa
:040248000e040000a0
:020000040000fa
:04024c000e0400009c
:020000040000fa
:040250000e04000098
:020000040000fa
:040254000e04000094
:020000040000fa
:040258000e04000090
:020000040000fa
:04025c000e0400008c
:020000040000fa
:040260000e04000088
:020000040000fa
:040264000e04000084
:020000040000fa
:040268000e04000080
:020000040000fa
:04026c000e0400007c
:020000040000fa
:040270000e04000078
:020000040000fa
:040274000e04000074
:020000040000fa
:04027800b4030000cb
:020000040000fa
:04027c000e0400006c
:020000040000fa
:040280000e04000068
:020000040000fa
:040284000e04000064
:020000040000fa
:040288000e04000060
:020000040000fa
:04028c000e0400005c
:020000040000fa
:040290000e04000058
:020000040000fa
:040294000e04000054
:020000040000fa
:040298000e04000050
:020000040000fa
:04029c00d203000089
:020000040000fa
:0402a0000e04000048
:020000040000fa
:0402a4000e04000044
:020000040000fa
:0402a8000e04000040
:020000040000fa
:0402ac000e0400003c
:020000040000fa
:0402b0000e04000038
:020000040000fa
:0402b4000e04000034
:020000040000fa
:0402b8000e04000030
:020000040000fa
:0402bc000e0400002c
:020000040000fa
:0402c0000e04000028
:020000040000fa
:0402c4000e04000024
:020000040000fa
:0402c8000e04000020
:020000040000fa
:0402cc000e0400001c
:020000040000fa
:0402d0000e04000018
:020000040000fa
:0402d4000e04000014
:020000040000fa
:0402d8000e04000010
:020000040000fa
:0402dc000e0400000c
:020000040000fa
:0402e0000e04000008
:020000040000fa
:0402e4000e04000004
:020000040000fa
:0402e8000e04000000
:020000040000fa
:0402ec000e040000fc
:020000040000fa
:0402f0000e040000f8
:020000040000fa
:0402f4000e040000f4
:020000040000fa
:0402f8000e040000f0
:020000040000fa
:0402fc00f00300000b
:020000040000fa
:040300000e040000e7
:020000040000fa
:040304000e040000e3
:020000040000fa
:040308000e040000df
:020000040000fa
:04030c000e040000db
:020000040000fa
:040310000e040000d7
:020000040000fa
:040314000e040000d3
:020000040000fa
:040318000e040000cf
:020000040000fa
:04031c000e040000cb
:020000040000fa
:040320000e040000c7
:020000040000fa
:040324000e040000c3
:020000040000fa
:040328000e040000bf
:020000040000fa
:04032c000e040000bb
:020000040000fa
:040330000e040000b7
:020000040000fa
:040334000e040000b3
:020000040000fa
:040338000e040000af
:020000040000fa
:04033c000e040000ab
:020000040000fa
:040340000e040000a7
:020000040000fa
:040344000e040000a3
:020000040000fa
:040348000e0400009f
:020000040000fa
:04034c000e0400009b
:020000040000fa
:040350000e04000097
:020000040000fa
:040354000e04000093
:020000040000fa
:040358000e0400008f
:020000040000fa
:04035c000e0400008b
:020000040000fa
:040360000e04000087
:020000040000fa
:040364000e04000083
:020000040000fa
:040368000e0400007f
:020000040000fa
:04036c000e0400007b
:020000040000fa
:040370000e04000077
:020000040000fa
:040374000e04000073
:020000040000fa
:040378000e0400006f
:020000040000fa
:04037c000e0400006b
:020000040000fa
:040380000e04000067
:020000040000fa
:040384000e04000063
:020000040000fa
:040388000e0400005f
:020000040000fa
:04038c000e0400005b
:020000040000fa
:040390000e04000057
:020000040000fa
:040394000e04000053
:020000040000fa
:040398000e0400004f
:020000040000fa
:04039c000e0400004b
:020000040000fa
:0403a0000e04000047
:020000040000fa
:0403a4000e04000043
:020000040000fa
:0403a8000e0400003f
:020000040000fa
:0403ac000e0400003b
:020000040000fa
:0403b0000e04000037
:020000040000fa
:0403b4000e04000033
:020000040000fa
:0403b8000e0400002f
:020000040000fa
:0403bc000e0400002b
:020000040000fa
:0403c0000e04000027
:020000040000fa
:0403c4000e04000023
:020000040000fa
:0403c8000e0400001f
:020000040000fa
:0403cc000e0400001b
:020000040000fa
:0403d0000e04000017
:020000040000fa
:0403d4000e04000013
:020000040000fa
:0403d8000e0400000f
:020000040000fa
:0403dc000e0400000b
:020000040000fa
:0403e0000e04000007
:020000040000fa
:0403e4000e04000003
:020000040000fa
:0403e8000e040000ff
:020000040000fa
:0403ec000e040000fb
:020000040000fa
:0403f0000e040000f7
:020000040000fa
:0403f4000e040000f3
:020000040000fa
:0403f8000e040000ef
:020000040000fa
:0403fc000e040000eb
:020000040000fa
:100400004f9f20000e7f22000e0188000000000098
:10041000000020000000e000020032000001200087
:100420002002880014000700450107000000e000da
:1004300003003a00201721000100200002003700cd
:100440000000200001002000810f70000100320038
:1004500014000700000020000000e000020032004d
:1004600000000200000000000c110200000000006b
:100470000040da000000fe004440a90020082000ef
:100480000000e000030032000020200090018800fe
:100490004440a800000006008a1f78008b1f7800e7
:1004a00000000600a1028800800478000000eb0034
:1004b0001f003700e284440054a0b4009905ba003c
:1004c000e284440054a0b4009906ba00e2844400d7
:1004d00054a0b4000006eb00476fde00fd07b20039
:1004e000ae018800636ce10003003a00eaff0700f8
:1004f0000000eb000e003700606ce10008003a00dd
:10050000004deb000a05e800020039003420ec0041
:100510000af0a0008b05e900f9ff3e000400370057
:100520006168e100010032000086eb000b0007006b
:1005300019c7ba001905ba000e04e00003003a001a
:100540000a00e000dbff3a0000000600fe07b200f0
:10055000ae0288008a047800f5ff37000cd0a300b3
:10056000e20f4d001c00390089027800354dba00b9
:100570000a05e800020039003420ec000af0a0006f
:100580008b05e9000f003200254dba000a05e8008e
:10059000020039003420ec000af0a0008b05e900cd
:1005a000080032000c00e0000600320015cdba0051
:1005b0000a05e800020039003420ec000af0a0002f
:1005c0008b05e9008984e80054a0b4000b00e0002a
:1005d000e2ff3a00000006009902ba00055d7800cb
:1005e0008b05e900f7ff3200c82ade00055d7800c0
:1005f0008b05e900f3ff32000c00e000f1ff320050
:1006000019ddba00eeff37002a05040000000000e3
:1006100056050400000000005a0d04000000000010
:1006200000000400000000003600f800809fbe00bb
:10063000829fbe00849fbe00869fbe000000fa001d
:100640008020a9000000eb00ef0907000080fa00fd
:100650004f03be004f02be004f01be004f00be0060
:100660003600f900004006003600f800809fbe000a
:10067000829fbe00849fbe00869fbe000000fa00dd
:10068000e60907008040a90010002000de090700ed
:100690000080fa004f03be004f02be004f01be00b3
:1006a0004f00be003600f900004006003600f8009a
:1006b000809fbe00829fbe00849fbe00869fbe00ba
:1006c0000000fa008060a90020002000ce09070089
:1006d0000080fa004f03be004f02be004f01be0073
:1006e0004f00be003600f900004006003600f8005a
:1006f000809fbe00829fbe00849fbe00869fbe007a
:100700000000fa008080a90030002000be09070028
:100710000080fa004f03be004f02be004f01be0032
:100720004f00be003600f900004006003600f80019
:10073000809fbe00829fbe00849fbe00869fbe0039
:100740000000fa00a30707008400a9000080fa0057
:100750004f03be004f02be004f01be004f00be005f
:100760003600f900004006003600f800809fbe0009
:10077000829fbe00849fbe00869fbe000000fa00dc
:10078000970707008680a9000080fa004f03be008b
:100790004f02be004f01be004f00be003600f90000
:1007a000004006003600f800809fbe00829fbe0019
:1007b000849fbe00869fbe000000fa00b4070700b9
:1007c00087a0a9000080fa004f03be004f02be00c0
:1007d0004f01be004f00be003600f9000040060089
:1007e0003600f800809fbe00829fbe00849fbe003e
:1007f000869fbe000000fa00bd0707008aa0a9007e
:100800000080fa004f03be004f02be004f01be0041
:100810004f00be003600f900004006000040da003c
:100820000000fe000a00fa0011002000b1bf9f0086
:10083000c0bf9f006a805700530507004fb897005c
:100840000080fa00000006000a00fa0051002000b3
:10085000b1bf9f00c0bf9f006a8057004c050700d2
:100860005fb897000080fa0000000600889fbe0075
:1008700080047800904f80000000e00004003a00ff
:100880000e0007000084eb000000e00008003500c7
:10089000984f80000900e000050032000900440084
:1008a000060007000000e00001003d000084eb00ae
:1008b000080078004f04be000000060080007800a9
:1008c0000100e00003003a0000002000904f880083
:1008d000000005000080eb0002002000828f500025
:1008e00002003e00914f88000000eb00000006006f
:1008f0000800fa00100798002107980032079800b6
:10090000be009000010f7800070037002e00900015
:1009100010407800ae0090008100e80021079800a8
:100920001d0807001e0fe9001e0078000000e0000f
:10093000f6ff3a003e0090000080fa00000006003a
:1009400000000500618320001b0037006183200048
:10095000ad010700800078000080eb000100e0009e
:100960000400350061832000a00020001200070071
:100970004f80de0000000600020037000204e000a5
:100980000b003200810178000002780030417800cd
:10099000b14f5100f9ff32001000200014427800de
:1009a000934f5200030031000080eb00000006006e
:1009b0000000eb0000000600889fbe008a1f780040
:1009c0000004be00c900900069009000808f5000b4
:1009d0000600390009007800540207008000780002
:1009e0000080eb000100e0001700350008457800aa
:1009f0004900900008587800c00498001900780059
:100a000000b8a30004003a0000a8a30008003200c8
:100a1000ea4f540006003a00090078003f01070041
:100a2000800078000080eb000100e00006003a0042
:100a300000c0200019006000020032004900900050
:100a4000e00498000a80fb004f0578004f04be00c8
:100a500000000600889fbe000004780001007800b6
:100a600082047800880178000901780011002000d4
:100a7000ad010700890f5000010032000004eb00b7
:100a8000080078004f04be00000006000000fa00d5
:100a9000e88157004fb9970061832000a0522000e1
:100aa000cc0007000080fa0000000600889fbe000e
:100ab000000478000203be00810478000802780078
:100ac00089017800120020000600be003a030700ea
:100ad000890f5000010032000004eb00080078008c
:100ae0004f04be00000006006800fa00889fbe00a8
:100af0008a9fbe0080047800010478008205780097
:100b0000030578008400780000f92f000f004000f2
:100b100027030700d98f9f00fb8f9f000000eb0089
:100b2000a09f9f00e88f9f009a84fb000904fb00b0
:100b30008904ea00cf4cde0050022000800f5400f0
:100b40000d003200e18f54000b003a0009017800db
:100b50008a0078007f889700df89970003000100f2
:100b6000f08f9f000000e000950032002f98970062
:100b70000000e800a09f9f000905450050022000ea
:100b8000800f5400040032000800e000e6ff3a0045
:100b90002f9897008b0037000000eb00809f9f008c
:100ba000f0979f00e0979f00d0979f00c0979f000d
:100bb000b0979f0007003700419e200001005000c1
:100bc00000004000819d200061007800cf989700d0
:100bd00001007000c09f9f000a047800080578009b
:100be000ba4478008900fb00409e2000b301070052
:100bf0000000e000f0ff3a00a1c2b30081cf540032
:100c00000e003a008f8897000180e900808f9f00d6
:100c100010007800b09f9f000000e00005003d003c
:100c20000000ea00b09f9f004f9897000020a000ae
:100c3000c09f9f000804e80010003700b09f9f008d
:100c4000880078000000eb0005003700f3ff270064
:100c5000830f5000020032006a02b9000400410014
:100c600001047800880078003101fb000203b10024
:100c7000e90f5100f5ff3600b09f9f00e0c2b300be
:100c8000984f1000020032000080eb00190037007e
:100c9000a0c2b300d84f100007003a008f88970019
:100ca0000180e900808f9f0010007800909f9f00d6
:100cb0000804e800100037000000eb00909f9f0040
:100cc0008800780005003700f3ff2700830f5000ed
:100cd000020032006a02b9000400410001047800f9
:100ce000880078003101fb000203b100e90f5100d8
:100cf000f5ff3600909f9f00984478008900fb0024
:100d0000009d20006d0107000000e000020032009d
:100d10000804e800010037008044eb00a97f9f0031
:100d200080c6b30080cf540006003a0098cf14006c
:100d300010003a0066405000a07f9f000804e800c1
:100d40000c003700c0c6b30080cf540009003a0041
:100d500098cf140007003a0067404000d84f1000b9
:100d600002003a006e4050000100370010c7b30087
:100d7000a07f9f001801fb00c3fb2f008f81410063
:100d800001f92f008f80400020f92f000f00400054
:100d9000150007000000e00009003a00c1fb2f0029
:100da0008f80400020f92f000f004000a6010700af
:100db0000000e000020035000805e8005aff370097
:100dc0000080eb004f05be004f04be000080fa001b
:100dd000000006000302780082017800010178001b
:100de0006155200040ff3700889fbe008a1f7800b1
:100df0000004780030c5b300804f51000800320075
:100e000030c7b300804f51000500320051c2b3001b
:100e100028089000814f510035003a003200370019
:100e20000869900050c6b300804f51001a003a0084
:100e30001101780064005100800878001000be00a5
:100e4000000c9800110c9800881190000300e0003d
:100e500007003d008081eb000001eb00f703070075
:100e60000001be0088089000810051000800370092
:100e70000001eb00f1030700008170000300320065
:100e8000080990008200500001003700881090008f
:100e9000410c98001d0037001180e900800878009f
:100ea000100578007a049800881490000900e0008a
:100eb00004003d000a0078000c010700800478005f
:100ec00007003700090178008000eb000a00780075
:100ed000e90007000000e000010032008a04500031
:100ee000490c98000900370082717800050037002e
:100ef000808141000204e00001003a0001417800d5
:100f0000824978000000e800200c98000000eb0007
:100f10004f0578004f04be0000000600889fbe0009
:100f20008a1f7800000478000800e0000d003a00f5
:100f300048882000700544008004eb0058007800c9
:100f40000000e00004003200f4ff07000000e000b1
:100f500001003d008084eb008a0f5400f7ff3a0047
:100f60002500370000002200180060008004eb001c
:100f700021003200a80490000f0037000901510041
:100f8000384090000000fb008900780058fe070000
:100f90000000e00007003c0028009000400498009a
:100fa00060049800500c98001890a0008084eb001a
:100fb000110037008084440048019000828f540063
:100fc000eeff390028009000400498009800780057
:100fd00002c020000281600001003a003800900049
:100fe00001e8a3000200320060049800010037000d
:100ff000500c98008004eb00090078004f05780041
:101000004f04be0000000600889fbe008a9fbe00fd
:1010100080047800010478002c003700c80090009c
:1010200068009000808f50000400390008007800ac
:10103000be0007000000e00037003500004020003f
:101040001800600009003200a100200009007800ab
:10105000ac000700800578000b00e00003003200c0
:10106000618514000a8545000400370009007800f6
:101070009e000700000578008005eb004800900006
:10108000e8009000808050008a8f500002003100fc
:10109000010578008005eb000a01780089007800de
:1010a0007f000700480090000a00400040049800bc
:1010b0000b00e000040032000800780097ff0700f2
:1010c0000000e00014003a008a8444001904e000a3
:1010d000d2ff3a00008020001800600006003200b5
:1010e000080078008dff0700800078000080eb008a
:1010f0000100e00009003a0001c020009880600073
:101100000000eb00050032004800900060049800e9
:101110000000eb00010037000080eb004f05be002f
:101120004f04be0000000600889fbe008a9fbe00dc
:101130008c9fbe008e1f78000006780001047800a6
:1011400002007800830478000881b9000207780063
:101150000200e000420032000800e00041003200de
:1011600082057800c900900069009000808f5000cf
:1011700004003900090078006c0007000000e0005e
:101180002900350000402000190060000a003200ec
:101190000b017800a10020000c0078003600070049
:1011a000800678000d00e0000600320061051600a0
:1011b0000a854600040037000b0578008006eb0026
:1011c000010037000b05780049009000e90090000d
:1011d000808050008a8f50000200310001057800a5
:1011e0008006eb000a0178008c0078002c000700d4
:1011f0008a855500490090000a004000c00498000c
:101200000d00e000040032000900780043ff0700f1
:101210000000e00004003a000b00e0000200320091
:101220000a064600cfff370000802000190060004a
:10123000020032000900780038ff070000c02000db
:10124000190060000200320049009000e00498009c
:101250008b055700110009008885d8000100370070
:101260000000eb004f0778004f06be004f05be00a0
:101270004f04be000000060003003700b0cf10008e
:10128000050032000201e900800178000200e00060
:10129000faff3a0000000500030078000000060095
:1012a0008001780002003700b15978000201e9009e
:1012b0000200e000fcff3a000000060002003700d8
:1012c0000304e0000600320000017800020078000c
:1012d000b041780081cf5100f9ff3a00010037009a
:1012e0000001eb000200780000000600800078009a
:1012f000010178003104e000fdff3a0000005100d8
:10130000000006000001eb0000027800b041780008
:1013100081cf510001003a00040178000304e0008d
:10132000f9ff3a000200780000000600889fbe0026
:101330008a1f780000047800c800900068019000bf
:101340000000eb00828f50003c003900180078004c
:101350002200290002016000e20f51000700320064
:10136000012020000000e0000100350001202400e1
:10137000008c70000080eb00300037000200260077
:1013800002006000820f500009003a00380090000f
:10139000808f50000600390008007800dffe07004b
:1013a000800078000080eb000100e00023003a009c
:1013b0001805780000c020000000650018003a0001
:1013c000a80490006002200008004000808f5400b4
:1013d00013003a0000202000370207002004980084
:1013e0000000e00005003a00290498004904980034
:1013f0008904e80039049800080037000a60a0005a
:101400000a0c7800400498000120200080804000f1
:1014100031049800400c9800500c980054010700cb
:101420002800900050049800380090006004980054
:1014300000002600180c70000000eb004f0578003b
:101440004f04be00000006000400fa00889fbe00a2
:101450008a9fbe008c1f7800000478000106780087
:10146000a814900028089000808454003808900048
:1014700080845400480890008084540058089000ec
:10148000808454006808900080845400780890009c
:10149000808454000002220090bf9f0000032300bc
:1014a000a0bf9f00381090000028a30015003a004c
:1014b0000900e00013003400090578008a0578006f
:1014c000e20f5500010036002b002000c8019000fb
:1014d0000b017800ee8057006800900003000100c7
:1014e000600498000000e000aa003200181090008c
:1014f0000b004000101498000b0555004240a90055
:10150000eeff3c00280990000200e0000c003400cf
:10151000c80190008c007800680090000300010072
:10152000600498008080eb000000e0009a00320028
:101530009810900028089000008040001014980037
:10154000380d90000a00e000110034008a05780090
:10155000e20f5500010036002b002000c80190006a
:101560000b017800ec805700680090000300010038
:10157000600498000000e00086003200181090001f
:101580000b004000101498000b055500edff3700cc
:1015900008699000c808900050c6b300804f510001
:1015a00008003a000100e0001500340058029000e5
:1015b000080990009809900068009000040001005c
:1015c000070037000100e0000d003400c801900062
:1015d00001017800f800900068009000030001000d
:1015e000600498008080eb000000e0006a00320098
:1015f0009810900048089000008040001014980057
:10160000580d90000a00e000110034008a057800af
:10161000e20f5500010036002b002000c8019000a9
:101620000b017800ec805700680090000300010077
:10163000600498000000e00056003200181090008e
:101640000b004000101498000b055500edff37000b
:10165000086990006808900051c6b300814f51009e
:101660000d003a000000e0001c00340078019000fa
:10167000c8089000010141006111b800828fd200ba
:101680008381d200580290008000780068009000aa
:1016900004000100090037000000e0000f003400e2
:1016a00078019000c808900081004100c8019000b6
:1016b00000017800680090000300010060049800b9
:1016c0008080eb000000e0003300320098109000b2
:1016d000680890000080400010149800780d900079
:1016e0000a00e000110034008a057800e20f55007e
:1016f000010036002b002000c80190000b0178008b
:10170000ec8057006800900003000100600498001e
:101710000000e0001f003200181090000b00400095
:10172000101498000b055500edff3700381090009d
:101730008000eb000028a300170032000900e00041
:101740001500340009057800e28f540001003600ce
:101750002a002000c80190000a017800ee8057009e
:101760006800900003000100600498000000e000a1
:1017700008003200181090000a0040001014980071
:101780008a8454004240a900eeff3c008000eb0038
:10179000010037008080eb00010078004f067800e0
:1017a0004f05be004f04be000080fa000000060096
:1017b0000108780000000600e6874700889fbe0009
:1017c0008a9fbe008c9fbe008e1f780082bf9f0044
:1017d00004047800029ab900f4b79f000400e00006
:1017e000590032000fb997000200e00057003200a4
:1017f0000006be0004077800c80090006800900052
:10180000808f50000400390008007800c7fe0700f0
:101810000000e0003b0035000040200018006000a0
:101820000a0032008e017800a20020000c00be00e9
:10183000820107000005be0000807500070032002d
:101840008c0455008904e800050037008e047800f8
:101850000a0020000b002000010037008e047800f1
:10186000480190006800900002005000890f50006d
:1018700003003100800478000a0020000b002000e3
:101880006111b800828fd2008381d20009027800f2
:101890000c00be00400107000907570048009000f7
:1018a00009004000400498000a85750004003200d9
:1018b0000800780099fd07000000e00011003a00e0
:1018c0000e00e0000f0032006148b800808fd200a7
:1018d0008180d2000000780000f0a1008c01d000cf
:1018e0000001d000028641004220a80081864e00ff
:1018f0004200a9004220ae004200a8000c86d3009e
:10190000bdff370000802000180060000200320098
:101910000800780081fd070000c02000180060006a
:1019200002003200c8019000630498007fb0970065
:101930000e0750000fb99700110009000287d80068
:1019400080017800010037008001eb00030078007f
:101950004f0778004f06be004f05be004f04be0083
:101960006f00b10000000600a0d520006100370024
:10197000881f7800e89e20001804e00003003a0069
:10198000f9ff070020c0b300004c78004f04780036
:1019900000000600889fbe00000478000800780060
:1019a0005efd07008004780000042000180060003d
:1019b00002003200280090005a0007000000eb00ef
:1019c00020049800384090000004e0000500350035
:1019d0000000fb0093fb07000000e0000100320064
:1019e0008084eb00181090000000e0000800320036
:1019f00095fb07000000e000010032008084eb004e
:101a000018109000470007000000eb001014980029
:101a10000008200018006000150032000001eb00f3
:101a20006000b800638820000202d00063027a00e0
:101a3000880f520005003a000000400081804800f5
:101a4000008041000008eb00060037006100400004
:101a5000e08048000201e800e80f5000e08f5800e5
:101a6000f0ff3a00080078002e0007000e00370053
:101a7000000c780000c0eb003044980060022000a9
:101a8000080040002004980040049800500498008a
:101a9000400c980060049800500c98007004980066
:101aa00076004400000c9800090078004f04be0046
:101ab00000000600881f78000004eb006140b800b9
:101ac000e2ff2f00f3ff2f00f700070042892000fc
:101ad000620078000000e00001003200adff070066
:101ae0000804e800e80f5400f4ff3a004f047800bf
:101af00000000600010020000100e00008003200a4
:101b0000010080000100e000050032008100e900d2
:101b1000010088008100d0000200800000b1780040
:101b2000000006000000e0002f003200c001780035
:101b3000e38f51002c0036000308a3002a003a006e
:101b4000614f80000100e00002003200810f500070
:101b50000400310011009800604f88001600370023
:101b600082007800110190000200e00002003200c3
:101b7000800f5100faff3900110278008482400082
:101b8000850f500018003900808f520003003a0082
:101b90008308420001007800070037000200e000df
:101ba0000300320083014000830f51000e00390012
:101bb0001200980090009800900090000100e00052
:101bc0000900320010014000828f500006003a00e8
:101bd000a29e20000009eb001001780011084100ce
:101be000910090001100980000000600889fbe0040
:101bf00000047800514f80000100e0000200320034
:101c0000010078000d003700614f8000c09e200069
:101c100004003700910f5400250036000180e800d1
:101c2000910090000100e000faff3a001000370038
:101c3000920f54001e0036000280e8001001780068
:101c40000200e000faff3a0011017800614f8000c5
:101c5000c09e200004003700910f5400140036008d
:101c60000180e80091009000828f5000faff3a0056
:101c7000894f8000888f540001003100880478006b
:101c800009007800360007000000e00004003a0078
:101c9000888f5400050032008904d100f5ff370019
:101ca000091878009fff0700d2ff37000000eb0003
:101cb0004f04be0000000600881f78006304400047
:101cc0000800a1008000eb00800f540021003600c6
:101cd000e30f540001003e00480020000800780097
:101ce000c2ff07008000eb000000e0001900320096
:101cf000900078009101780064815100880f5100b4
:101d0000030031001101900002087800070037003d
:101d100008814000020878009101900013019800aa
:101d2000100178001109140088087800100178006b
:101d30000000eb000200e00004003200920190007d
:101d40000300e000010032000280e800504f8800ec
:101d50008180e800010078004f0478000000060050
:101d6000800078000000eb000100e0000500340076
:101d700001007800bdfa0700e10f400001003a00c1
:101d80000000eb000000060000c0da0000000600c2
:101d900000c0da00000006003400f8003200f8004d
:101da0000203be00820270008502720002f0a600eb
:101db0008301e800a301880000f0a6008100e8008c
:101dc000910188001500b2000c0032001049780023
:101dd0000402e900150032006101410002003900ef
:101de0003420ec000200280061004000f7ff3900b9
:101df0003220ec0000002800f4ff370010097800c2
:101e00000482e90009003200620141000200390049
:101e10003420ec000200280062004000f7ff390087
:101e20003220ec0000002800f4ff37003200f900f7
:101e30003400f9000601be00000006000300e000c7
:101e4000070032009501800091018800104278005f
:101e5000950188000402fb00820f5200110032003d
:101e60008301e9009501800091018800104278000b
:101e7000950188000404e0000800320000027800a8
:101e80001000b00000026a004260af0000f0a00045
:101e90000482d2000180b000e8ff3700000020007b
:101ea0000100200000000600020ab900001bb90072
:101eb0000200b800810042008100430000000600db
:020000040000fa
:101ec0006100000062000000630000006400000088
:101ed00065000000660000007a0000007800000045
:101ee00046690000726d00007761000072650000b5
:101ef000206900006e6600006f3a00000d000000cf
:101f00004a7500006c2000003239000020320000c9
:101f10003032000031000000313300003a3200005e
:101f2000383a000030320000000d00000057000079
:101f30007269000074740000656e00002062000089
:101f4000793a0000205400006172000069710000bd
:101f500020440000696e00006d6f000068610000a1
:101f60006d650000640d0000005000004943000052
:101f700032340000464a0000313200003847000089
:101f800041330000303600002040000020310000c6
:101f9000364d0000487a00000d000000496e000038
:101fa000636f00007272000065630000742000001f
:101fb000636f00006d6d0000616e0000642e000014
:041fc0000d00000010
:020000040000fa
:101fc4000200fa00000f780001f628001e007800d5
:101fd40068fa07000000e0000d003a00100020003d
:101fe40060408800d862a8008220a9000001eb00ac
:101ff40091002000e09120000503070080f92a00e9
:10200400810a2000710307009680a8007f00370032
:1020140021f628001e00780056fa07000000e000b0
:1020240008003a0010002000004088008220a80028
:102034000001eb009100200050912000f402070001
:102044007200370041f628001e00780049fa0700a4
:102054000000e0000e003a000001eb0091002000b7
:10206400a08f2000ea02070000512700010720008a
:102074005603070010002000004088000001eb0018
:102084009100200070922000e10207005f003700f9
:1020940061f628001e00780036fa07000000e00010
:1020a4000e003a0010002000104088009680a9001d
:1020b4000001eb0091002000a08f2000d402070053
:1020c4008240a90097a0a8000001eb009100200025
:1020d40070922000ce0207004c00370081f62800e1
:1020e4001e00780023fa07000000e00012003a0006
:1020f40010002000204088009680a90097a0a90025
:102104000001eb0091002000c0902000c0020700f5
:10211400c07c2500410520002c0307008260a90033
:102124009aa0a8000001eb0091002000509120002b
:10213400b702070035003700a1f628001e0078001a
:102144000cfa07000000e00008003a009680a9009d
:1021540097a0a9009aa0a9000001eb00910020001b
:1021640030902000aa02070028003700c1f628009a
:102174001e007800fff907000000e00009003a00a3
:102184000001eb009100200000932000a002070052
:10219400a0fb2c00210020000c0307000000fe001f
:1021a4001a003700e1f628001e007800f1f9070054
:1021b4000000e00013003a0000f72800e2f90700ed
:1021c40000f82800801f78002ffa07008f87e900a5
:1021d40000022000daf90700c0f82800801f780008
:1021e40029fa07008f87e90050f92800d6f907007b
:1021f40070f92800d4f9070050fb2800d2f9070031
:1022040002003700e0fc2800cff907000080fa0044
:10221400000006000a00fa000603070081e0a90096
:102224009680a90097a0a9009aa0a900cd02a800b1
:102234000040eb00004f7800010037000000000070
:10224400ec42a80040d42100c1012000df020700b5
:10225400ec42a900ec62a80040d42100c101200096
:10226400da020700ec62a900bb01070010479800de
:102274001e409000ea4f50000d0032001e409000b6
:10228400ed4f50000a0032001e80fb0000004700a2
:102294009e409000214098001e4fe8001e407800a8
:1022a400e84f5000020036000040eb00004f780079
:1022b4001e409000ea4f5000e0ff3a001e80fb00f1
:1022c400000047008040eb00214098000040eb00f4
:1022d400004f78000e80e80039ff0700d8ff370070
:020000040000fa
:1022e400b009000020000000800000000a0800007f
:1022f4000200000082000000ffff000096080000ba
:1023040052000000820000000106010000000000ed
:1023140000000800010501000000000000000700a3
:10232400010400000000000000000500010100009d
:10233400000000000005070001010000000000008b
:10234400000305000101000000000000000103007b
:102354000102000000000000000508000102000066
:102364000000000000010400010300000000000060
:10237400000a0e0000000000000800000600000033
:10238400800000000c080000020000008200000031
:1023940001000000e8080000520000008200000074
:1023a4000106010000000000000008000105010012
:1023b400000000000000070001040000000000000d
:1023c40000000500010100000000000000050700f6
:1023d40001010000000000000003050001010000ed
:1023e40000000000000103000102000000000000e2
:1023f40000050800010200000000000000010400c4
:102404000103000000000000000a0e0000000000ac
:102414003a09000052000000820000000106010099
:102424000000000000000800010501000000000099
:102434000000070001040000000000000000050087
:102444000101000000000000000507000101000078
:10245400000000000003050001010000000000006e
:102464000001030001020000000000000005080054
:10247400010200000000000000010400010300004c
:1024840000000000000a0e00000000008c0900009b
:102494002400000080000000060800000400000082
:1024a400800000000e080000880000008200000088
:1024b4000100000000340800350834000834080026
:1024c4003408340008240800000000000000000064
:1024d40000000000000000000000000000000000f8
:1024e400000000000002080001015c00085d080013
:1024f4005c085c00085c08005c084c0008000000f4
:1025040000000000000000000000000000000000c7
:1025140000000000000000000000020008020200a9
:10252400840885000884080084088400088408005e
:10253400740800000000000000000000000000001b
:102544000000000000000000000000000000000087
:102554000e083600085e08000000000000000000bd
:102564000000000000000000d00900001a00000074
:1025740082000000686a6c00747a4c00000001005c
:102584000002000004000800001000000000200009
:102594002b2d230030000000ee0900000200000093
:1025a40080000000f009000002000000820000002a
:1025b40004000000ea09000004000000800000009c
:1025c400f20900000200000080000000000000008a
:020000040000fa
:1025d4000000fa000080fa00000006000000fa0083
:1025e4000f003700c029210061002000f701070017
:1025f4000001eb0091002000e08d20008401070021
:10260400e0f2260081002000f00107000001eb0049
:1026140091002000f08920007d0107000c28ef00c4
:1026240060408000e10f500012003a00d016800094
:10263400680060000000e000eaff3a000e00370086
:102644001200200091002000608920007001070022
:1026540040f7290051002000dc0107000001eb00d5
:1026640091002000e08d2000690107000028ef00a0
:10267400010037000000000000408000e10f50001e
:10268400efff32000080fa00000006000000fa00ac
:102694000d00370012002000910020006089200006
:1026a4005b01070040f7290051002000c701070023
:1026b4000001eb0091002000e08d20005401070090
:1026c4000228ef0097a0a90010408000e10f5000fd
:1026d40004003a00d0168000700060000000e000a2
:1026e400ecff3a000080fa00000006000000fa0047
:1026f4000d003700120020009100200060892000a6
:102704004301070040f7290051002000af010700f2
:102714000001eb0091002000e08d20003c01070047
:102724009aa0a9000428ef0020408000e10f500087
:1027340005003a00d11680000002200000806000ed
:102744000000e000ebff3a000080fa000000060001
:102754000000fa008400a9008200a9009400a800e7
:102764008680a9008220a9009680a80087a0a900dd
:102774008240a90097a0a8008aa0a9008260a900ad
:102784009aa0a8000080fa00000006000000fa00e9
:102794000002280060168800d422ef00dc22ef003b
:1027a400e422ef00ec22ef00f422ef00f0ed27002a
:1027b400401688000000210080168800f0ff2000e9
:1027c400c0168800f00f2000001788003007200092
:1027d40040178800c03c2000801788005620ef0076
:1027e4005820ef005a20ef005c20ef005e20ef003d
:1027f4006020ef006e20ef007020ef007220ef00e9
:102804007420ef007620ef007820ef00ce22ef0056
:10281400d622ef00de22ef00e622ef00ee22ef00e8
:10282400f622ef00c0ec23001027880000cc200023
:1028340030278800000f200040278800003c20003b
:1028440060278800113a8000f00b200000816000ae
:102854006004200071052000237420008049780062
:10286400814978008249780001348000f00f2c00ff
:102874008080600000602100010070000034880046
:10288400e1368000f00f2c008080600000c0210041
:1028940001007000e03688001134800000fc2f0035
:1028a400008060009001b30010348800213580005e
:1028b40000fc2f0000806000c001b30020358800b8
:1028c40011358000f00f2c008080600000e02000b3
:1028d400010070001035880011348000f00f2c00c6
:1028e40080806000004021000100700010348800e6
:1028f4009136800000fc2f00008060003000b3009f
:1029040090368800103a8000000178000260a00030
:1029140060042000710520002374200080497800a1
:1029240081497800824978000080fa00000006009e
:102934000000fa0080002000001188002222ef002d
:10294400f00c20004011880021e2a8002342a800d6
:102954000080fa00000006000000fa0000000000f9
:1029640010118000610060000000e000fcff3200f4
:1029740010118000620060000000e00001003200dd
:102984002222a90030118000004078000080fa0063
:10299400000006000200fa00004f7800000000006a
:1029a4001111800000202000008060000000e00081
:1029b400fbff3a001e80fb00201188000080fa0013
:1029c400000006000000fa001011800000407800aa
:1029d400614060000080fb0000f0a7000000ea00f6
:1029e4000000ea004f00de00004078000080fa009a
:1029f400000006000000fa001111800000202000f1
:102a0400008060000000e00007003a00111180001f
:102a140000402000008060000000e000020032005e
:102a240010002000010037000000eb000040780097
:102a34000080fa00000006000000fa001011800077
:102a44004800de00614060000080fb0000f0a70049
:102a54000000ea000000ea004f00de0000407800b9
:102a64000080fa00000006000000fa001011800047
:102a74000080fa00000006000000fa0021e2a8002d
:102a84002342a8000080fa00000006000000fa00bb
:102a940021e2a9002342a9000080fa0000000600f8
:102aa4000000fa0080002000801288005222ef000b
:102ab400f00c2000c012880051e2a8005342a80084
:102ac4000080fa00000006000000fa000000000088
:102ad40090128000610060000000e000fcff320002
:102ae40090128000620060000000e00001003200eb
:102af4005222a900b0128000004078000080fa0041
:102b0400000006000200fa00004f780000000000f8
:102b14009112800000202000008060000000e0008e
:102b2400fbff3a001e80fb00a01288000080fa0020
:102b3400000006000000fa009012800000407800b7
:102b4400614060000080fb0000f0a7000000ea0084
:102b54000000ea004f00de00004078000080fa0028
:102b6400000006000000fa009112800000202000fe
:102b7400008060000000e00007003a00911280002d
:102b840000402000008060000000e00002003200ed
:102b940010002000010037000000eb000040780026
:102ba4000080fa00000006000000fa009012800085
:102bb4004800de00614060000080fb0000f0a700d8
:102bc4000000ea000000ea004f00de000040780048
:102bd4000080fa00000006000000fa009012800055
:102be4000080fa00000006000000fa0051e2a8008c
:102bf4005342a8000080fa00000006000000fa001a
:102c040051e2a9005342a9000080fa000000060026
:102c14000600fa00881f7800000f7800110798005a
:102c2400220798000628ef00070037003040800094
:102c34001e00400010407800b2ff070030408000c2
:102c44000000e80030408800314080001e00900001
:102c5400808f5000f5ff35002e0090000000e0004a
:102c6400160034000828ef001000370048408000a8
:102c740095ff07008080fb0008014400c0982000f5
:102c840000004100010878004040800080004000be
:102c9400c098200000804000100078003dff07002d
:102ca400404080000000e800404088004040800030
:102cb400e80f5000edff34000f0037000828ef0044
:102cc4000a003700484080007fff07008080fb0037
:102cd40008014400e0992000000041000108780048
:102ce400404080000000e8004040880040408000f0
:102cf400e80f5000f3ff34004f0478000080fa001e
:102d0400000006000000fa0000102300203a8800aa
:102d14004827ef004e27ef007027ef007227ef00df
:102d24007427ef007627ef007a27ef007c27ef0067
:102d34002200200080072000a10920003374200015
:102d44008049780081497800824978000001eb00cd
:102d5400600420007105200023742000804978005d
:102d640081497800824978000080fa00000006005a
:102d74000000fa002105800080ff2f000080600021
:102d84000000a00020058800f1058000f0f82f0065
:102d9400008060000040a000f005880071058000fc
:102da40080ff2f00008060000000a00070058800f4
:102db40091058000f0f82f00008060000040a00022
:0c2dc400900588000080fa000000060066
:020000040000fa
:102dd000f03fb1000180b10006003500ee030900ac
:102de00000000000403fb1000180b100fbff3d004a
:102df0001000b000203fb000020035000080090044
:082e00000000000000000600c4
:020000040000fa
:102e08000200fa00000f78009e0078005140880008
:102e1800ffff37000000fa00009b200080077800c1
:102e2800809c2000000188000080fa000000060055
:102e38000000fa0054fe0700ccff0700b0ff0700af
:102e480042fe0700b9fe070014ff07000080fa00e1
:042e58000000060070
:020000040000fa
:020000040002f8
:04aff000ffff00005f
:020000040000fa
:020000040002f8
:04aff4007fee0000ec
:020000040000fa
:020000040002f8
:04aff800966200005d
:020000040000fa
:020000040002f8
:04affc009f3f000073
:00000001FF
